:060000000A128A110E280D
:10000800FE00030EF3000408F4000A08F5000A16BF
:100018008A11832A0A128A111128831603170A16CD
:100028008A11D1210A128A11A0000A168A11D22136
:100038000A128A11A1000A168A11D3210A128A11FA
:10004800A2000A168A11D4210A128A11A3000A16DC
:100058008A11D5210A128A11A4000A168A11D621FA
:100068000A128A11A500F601F70183010A128A1102
:10007800C72EC53020060930031921060319452863
:1000880046284F28C6302006093003192106031DCB
:100098004E284F28AA2822082304031D542855282F
:1000A800AA280A168A11D7210A128A118316031759
:1000B800960197011708803AFF0080307F02031DE0
:1000C80067280A301602031C6A286B286C28A228A5
:1000D80083120313A401A40A01300A168A115024BA
:1000E8000A128A11AA3083120313A5009830A600B9
:1000F8000A168A1136230A128A1183120313A401DD
:10010800A40A02300A168A1150240A128A11F930F8
:1001180083120313A5009830A6000A168A11362305
:100128000A128A1183120313051601308316031766
:1001380096070318970A003097075E280A168A114F
:10014800D7210A128A11831203130512143083125D
:100158000313B2009930B3008316031721088312E2
:100168000313B50083160317200883120313B40082
:1001780083160317230883120313B7008316031784
:10018800220883120313B600B4300A128A15C42257
:100198000A128A110A3083120313A40001300A16C6
:1001A8008A1150240A128A11D93083120313A50028
:1001B8009830A6000A168A1136230A128A110B30C3
:1001C80083120313A40001300A168A1150240A125C
:1001D8008A11B43083120313A5000030A6000A1652
:1001E8008A1136230A128A11003083120313A000E1
:1001F800A10083160317210883120313A300831693
:100208000317200883120313A2000A168A11472233
:100218000A128A11013083120313A0000030A100D2
:1002280083160317230883120313A30083160317E7
:10023800220883120313A2000A168A1147220A12FF
:100248008A11023083120313A0000030A100831624
:100258000317250883120313A30083160317240822
:1002680083120313A2000A168A1147220A128A115E
:10027800831203131F08C73918389F001F151F1949
:100288004629472943291E0883160313D7001E0849
:10029800D600570883120313A100831603135608C8
:1002A80083120313A0000330A2000030A3000A1633
:1002B8008A11AA220A128A118312031321088316AB
:1002C80003179B00831203132008831603179A0051
:1002D800E83083120313A6000330A7008316031720
:1002E8001B0883120313A900831603171A08831225
:1002F8000313A8000A168A11C2230A128A1183124C
:10030800031327088316031799008312031326087B
:10031800831603179800643083120313A600003075
:10032800A70083160317190883120313A100831665
:100338000317180883120313A0001830A200FC301A
:10034800A3000A168A11AA220A128A118316031711
:100358001A08831203132007A800831603171B0823
:1003680003181B0A831203132107A9000A168A110E
:10037800C2230A128A118312031327088316031350
:10038800EB0083120313260883160313EA000A30CE
:1003980083120313A6000030A70083160317190859
:1003A80083120313A100831603171808831203137B
:1003B800A0001830A200FC30A3000A168A11AA2255
:1003C8000A128A11831203132008D4002108D500C9
:1003D800831603136B0883120313A10083160313F8
:1003E8006A0883120313A0009C30A200FF30A30008
:1003F8000A168A11AA220A128A11831203132008E4
:100408005407D60021080318210A5507D700831678
:1004180003171A08831203135607A8008316031735
:100428001B0803181B0A831203135707A9000A168F
:100438008A11C2230A128A1183120313270883160A
:100448000313DB0083120313260883160313DA0051
:100458000A3083120313AD000030AE008316031771
:100468001B0883120313B000831603171A0883129C
:100478000313AF000A168A11FA220A128A1183128C
:1004880003132E0883160313DD00831203132D08AC
:1004980083160313DC00831203131F08C7390838B7
:1004A8009F000F3083120313D400D40B592A5C2AFF
:1004B800831203131F151F19622A632A5F2A8316E2
:1004C80003131E0883120313D400D5011E08D60097
:1004D800D7015608D700D60154085604A00055087D
:1004E8005704A100A201A11BA2032208A300013006
:1004F8000A128A153B200A128A1183120313230851
:1005080083160313E90083120313220883160313C7
:10051800E80083120313210883160313E7008312EC
:100528000313200883160313E60083120313091923
:100538009E2A9F2ACD2A0718A22AA32ACD2A8316E3
:100548000313690883120313A300831603136808AF
:1005580083120313A200831603136708831203137D
:10056800A10083160313660883120313A0000A165A
:100578008A11FF240A128A1183120313210D210CF8
:10058800831603179F0083120313200C8316031787
:100598009E00443083120313BD007A30BC00003043
:1005A800BB000030BA004430A3008030A200003005
:1005B800A1000030A00083160313690883120313F7
:1005C800A70083160313680883120313A600831673
:1005D8000313670883120313A50083160313660821
:1005E80083120313A4000A128A15F5200A128A112D
:1005F800831203132308C1002208C0002108BF008A
:100608002008BE000A128A15BB240A128A11831216
:1006180003133D0883160313D000831203133C0809
:1006280083160313CF00831203133B0883160313A7
:10063800CE00831203133A0883160313CD008312E6
:1006480003131F08C73910389F001F151F192D2BBA
:100658002E2B2A2B1E0883160313D9001E08D80038
:10066800590883120313D5008316031358088312FD
:100678000313D4000310D50CD40C5408EC0055080F
:10068800ED00A401A40A02300A168A1150240A12A5
:100698008A111F3083120313A5009930A6000A1689
:1006A8008A1136230A128A115F3083120313B200AB
:1006B8009930B30083160313500883120313A30061
:1006C800831603134F0883120313A2008316031320
:1006D8004E0883120313A100831603134D088312D7
:1006E8000313A0000A168A11FF240A128A11831222
:1006F80003132108B5002008B400E0300A128A1557
:10070800C4220A128A110A3083120313A400023089
:100718000A168A1150240A128A11E0308312031330
:10072800A5000030A6000A168A1136230A128A117B
:1007380083120313A401A40A01300A168A11502453
:100748000A128A116A3083120313A5009930A60091
:100758000A168A1136230A128A113D3083120313AE
:10076800B2009930B30083160317190883120313D4
:10077800B50083160317180883120313B4008316F1
:1007880003136B0883120313B700831603136A0855
:1007980083120313B600831603135B088312031333
:1007A800B900831603135A0883120313B80083167B
:1007B80003135D0883120313BB00831603135C083D
:1007C80083120313BA00D1300A128A15C4220A12FE
:1007D8008A11053083120313A40001300A168A1106
:1007E80050240A128A11D13083120313A500003055
:1007F800A6000A168A1136230A128A1183120313D5
:10080800871C072C082C2F2C09180B2C0C2C102CAF
:10081800091D0F2C102C2F2C0D30A40002300A16A5
:100828008A1150240A128A11473083120313A50033
:100838009930A6000A168A1136230A128A116530E1
:1008480083120313A1009930A2000A168A117C238F
:100858000A128A110E2E091D322C332C372C091836
:10086800362C372C3F2C091D3A2C3B2C952C8918FB
:100878003E2C3F2C952C0D30A40002300A168A110C
:1008880050240A128A11293083120313A5009930C3
:10089800A6000A168A1136230A128A110330831613
:1008A80003171F02203003191E0203185C2C5D2C4D
:1008B8000E2E50309E0703189F0A00309F07033002
:1008C8001F02213003191E02031C6B2C6C2C702C88
:1008D80020309E0003309F00593083120313B2006A
:1008E8009930B300831603171F0883120313B5004A
:1008F800831603171E0883120313B400BD300A12AF
:100908008A15C4220A128A11BD3083120313A1006A
:100918000030A2000A168A117C230A128A110E2EB0
:100928000E2E091C982C992CD02C0D30A4000230C6
:100938000A168A1150240A128A11CD308312031321
:10094800A5009830A6000A168A1136230A128A11C1
:10095800593083120313B2009930B300831603177A
:100968001F0883120313B500831603171E0883128A
:100978000313B40058300A128A15C4220A128A11C5
:10098800583083120313A1000030A2000A168A11FE
:100998007C230A128A110E2E071DD32CD42CFB2C73
:1009A8008918D72CD82CDC2C071CDB2CDC2CFB2C36
:1009B8000D30A40002300A168A1150240A128A1136
:1009C800503083120313A5009930A6000A168A1125
:1009D80036230A128A11653083120313A100993055
:1009E800A2000A168A117C230A128A110E2E071CED
:1009F800FE2CFF2C032D8918022D032D0B2D071C0F
:100A0800062D072D9C2D09180A2D0B2D9C2D0D3018
:100A1800A40002300A168A1150240A128A113330AF
:100A280083120313A5009930A6000A168A113623EB
:100A38000A128A11831603171E0983120313D4009E
:100A4800831603171F0983120313D500D40A031949
:100A5800D50A5408831603179C00831203135508FC
:100A6800831603179D001D08803AFF007C307F0223
:100A7800031D402DE1301C02031C432D442D942CF2
:100A8800B030831603179C0703189D0AFF309D0793
:100A98001D08803AFF007C307F02031D552DE03091
:100AA8001C020318582D592D5F2DE03083160317AB
:100AB8009C00FC309D00831603171C098312031346
:100AC800D400831603171D0983120313D500D40A13
:100AD8000319D50A5408831603179E0083120313BB
:100AE8005508831603179F00593083120313B20069
:100AF8009930B300831603171D0883120313B5003A
:100B0800831603171C0883120313B400C5300A1296
:100B18008A15C4220A128A11C53083120313A10050
:100B28000030A2000A168A117C230A128A110E2E9E
:100B3800891C9F2DA02DF02D0D30A40002300A161F
:100B48008A1150240A128A11EB3083120313A5006C
:100B58009830A6000A168A1136230A128A118316BB
:100B680003171E0983120313D400831603171F09E2
:100B780083120313D500D40A0319D50A540883161F
:100B88000313DE0083120313550883160313DF00D3
:100B9800593083120313B2009930B300831603133C
:100BA8005F0883120313B500831603135E088312CC
:100BB8000313B400A0300A128A15C4220A128A113B
:100BC800A03083120313A1000030A2000A168A1174
:100BD8007C230A128A110E2E0D30A40002300A1648
:100BE8008A1150240A128A11073083120313A500B0
:100BF8009930A6000A168A1136230A128A1165301E
:100C080083120313A1009930A2000A168A117C23CB
:100C18000A128A1183120313871C132E142E202EF6
:100C28000918172E182E1C2E091D1B2E1C2E202EBF
:100C3800831203130516C12E071D232E242E2D2ED5
:100C48008918272E282E1C2E071C2B2E2C2E2D2ED5
:100C58001C2E0512C12E871D322E332E892EA4017B
:100C6800A40A01300A168A1150240A128A11373050
:100C780083120313A5009830A6000A168A1136239A
:100C88000A128A1183120313A401A40A02300A1655
:100C98008A1150240A128A111C3083120313A500EA
:100CA8009830A6000A168A1136230A128A1165306E
:100CB80083120313A1009930A2000A168A117C231B
:100CC8000A128A11831203130516063083120313BE
:100CD800D6001330D500AD30D400D40B712ED50B0F
:100CE800712ED60B712E8312031305121030831246
:100CF8000313D6003930D5000D30D400D40B822E22
:100D0800D50B822ED60B822E1C2E081C8C2E8D2ED7
:100D1800C12E6530A1009930A2000A168A117C23E1
:100D28000A128A1183120313A401A40A01300A16B5
:100D38008A1150240A128A11693083120313A500FC
:100D48009830A6000A168A1136230A128A118312CD
:100D58000313A401A40A02300A168A1150240A12A5
:100D68008A11513083120313A5009830A6000A1681
:100D78008A1136230A128A11662E0A128A11BD2F89
:100D88000A128A110E288316031386010512091404
:100D9800891487140715091507148715081485146D
:100DA800051585150A168A119C240A128A118316BC
:100DB80003130713871705108512071007128712E8
:100DC80001308800823083120313D500DD30D4004F
:100DD800D40BEC2ED50BEC2E831203130512003026
:100DE800A000A1000A168A1116220A128A1183127B
:100DF8000313210883160317A10083120313200885
:100E080083160317A000013083120313A0000030DB
:100E1800A1000A168A1116220A128A1183120313D4
:100E2800210883160317A3008312031320088316CF
:100E38000317A200023083120313A0000030A100A0
:100E48000A168A1116220A128A118312031321081C
:100E580083160317A50083120313200883160317AC
:100E6800A400831603138112811101158114011442
:100E78008B170B178B160A168A11D7210A128A119B
:100E880083120313A401A40A01300A168A115024FC
:100E98000A128A11BD3083120313A5009830A600E8
:100EA8000A168A1136230A128A1183120313A4011F
:100EB800A40A02300A168A1150240A128A11DC3058
:100EC80083120313A5009830A6000A168A11362348
:100ED8000A128A11113083120313A40002300A1671
:100EE8008A1150240A128A116F3083120313A50045
:100EF8009930A6000A168A1136230A128A1106307A
:100F080083120313D6001330D500AD30D400D40BB0
:100F18008B2FD50B8B2FD60B8B2F0A168A11D72127
:100F28000A128A110C308316031399000A168A11C3
:100F3800F2210A128A11831603179E019F01831654
:100F480003139F171F08F03904389F0083120313F7
:100F58001F083F3980389F001F1487100911091096
:100F6800071107108910013083160313E4000030BD
:100F7800E50083160313640865040319C42FC72FFB
:100F88000A168A11892D83120313A401A40A0130B9
:100F98000A168A1150240A128A11963083120313F2
:100FA800A5009830A6000A168A1136230A128A115B
:100FB80083120313A401A40A02300A168A115024CA
:100FC8000A128A11813083120313A5009830A600F3
:100FD8000A168A1136230A128A1183120313091971
:0E0FE800F82F0A168A11772D0A128A11C42ECC
:1010040083120313A40024080F39A2002408F03922
:10101400A30086162308A10004300310A10CFF3E90
:10102400031D0F2821080A168A1163220A128A1541
:101034008312031306160C3083120313A100A10BB1
:101044002128000083120313061222080A168A11AB
:1010540063220A128A158312031306160C308312B4
:101064000313A100A10B34280000831203130612FA
:10107400080083120313A8002808031942284328F0
:101084005728A31F4628472857282009AA002109C2
:10109400AB002209AC002309AD00AA0A0319AB0A6C
:1010A4000319AC0A0319AD0A5F282308AD0022080E
:1010B400AC002108AB002008AA0023082204210464
:1010C4002004031D6628672870280030A300003020
:1010D400A2000030A1000030A000F4289630A9003E
:1010E40080280130FF007F08A90701300310AD0CF0
:1010F400AC0CAB0CAA0CFF3E031D7828FE302D056A
:10110400031D852886287328A2280130FF007F0844
:10111400A9070130AA07003003180130AB070030DB
:1011240003180130AC07003003180130AD0701305B
:101134000310AD0CAC0CAB0CAA0CFF3E031D9A289B
:10114400FF302D05031DA728A8288728B4280130BF
:10115400A9020130A4000310AA0DAB0DAC0DAD0D16
:10116400A40BAD28AC1BB728B828BE28023029022E
:101174000318BD28BE28A9282918C128C228CA28AE
:10118400FF30AA05FF30AB057F30AC05FF30AD055D
:101194000310A90C2908A400A501A601A701183071
:1011A4000310A40DA50DA60DA70DFF3E031DD22807
:1011B4002408AA042508AB042608AC042708AD04B7
:1011C40028080319E628E728EC28A31FEA28EB28B7
:1011D400EC28AD172D08A3002C08A2002B08A100B1
:1011E4002A08A00008008312031327088039B100DD
:1011F4002708A8002807B800A61F012902290329E7
:10120400381438080319072908291829380A031D2E
:101214000C290D2915290030A7000030A600003044
:10122400A5000030A400A617A70120290030A700BC
:101234000030A6000030A5000030A4002308803947
:10124400FF007F08B1062308A8002807B900A21FE1
:101254002C292D292E293914390803193229332927
:101264004329390A031D3729382940290030A300AE
:101274000030A2000030A1000030A000A217A3019A
:101284004B290030A3000030A2000030A100003040
:10129400A0002308220421042004031D52295329F9
:1012A4006C290030A7000030A6000030A5000030F3
:1012B400A4008030A6047F30A7043108FF007F0813
:1012C400A7042708A3002608A2002508A1002408D3
:1012D400A000C32A3808031D702971297A29003017
:1012E400A3000030A2000030A1000030A000C32AF7
:1012F4003808A800A9012908AB0039082802AA0067
:10130400031CAB032A087F3EB2002B080318013EDE
:10131400003EB3002708B0002608AF002508AE0041
:101324002408AD000030A7000030A6000030A5005E
:101334000030A4000030B7000030B6000030B50023
:101344000030B400B901F02939080319AA29AB29DE
:10135400CB290130A8000310AD0DAE0DAF0DB00DBB
:10136400A80BAD290130A8000310A40DA50DA60DEE
:10137400A70DA80BB629B71FC029C129C229241457
:101384000130A8000310B40DB50DB60DB70DA80BB0
:10139400C42923083002031DD92922082F02031D62
:1013A400D92921082E02031DD92920082D02031C46
:1013B400DC29DD29EC2937172008AD022108031C9C
:1013C400210FAE022208031C220FAF022308031CC4
:1013D400230FB0020130FF007F08B9071A30390229
:1013E400031CF529F629A62930082F042E042D0400
:1013F4000319FD29FE291D2A34141D2A0130A800D1
:101404000310A40DA50DA60DA70DA80B022AB71F46
:101414000C2A0D2A0E2A24140130A8000310B40D3E
:10142400B50DB60DB70DA80B102AFF30B20703187F
:10143400B30AFF30B307A61F202A212A002AB901C4
:10144400B71F252A262A422AFF303405A800FF3078
:101454003505A900FF303605AA007F303705AB00FB
:101464002B082A04290428040319392A3A2A3D2A74
:10147400B901B90A422A241C402A412A422A3A2A9A
:1014840039080319462A472A782A0130A40700306C
:1014940003180130A507003003180130A6070030F7
:1014A40003180130A707271C582A592A782A240828
:1014B400A8002508A9002608AA002708AB000130C7
:1014C400AC002B0DAB0CAA0CA90CA80CAC0B632A1A
:1014D4002B08A7002A08A6002908A5002808A400AC
:1014E4000130B2070318B30A0030B3073308803A57
:1014F400FF0080307F02031D812AFF303202031C6B
:10150400842A852A932AFF3083120313B200003001
:10151400B3000030A7000030A6000030A500003062
:10152400A400831203133308803AFF0080307F0243
:10153400031D9E2A013032020318A12AA22AAF2ACF
:1015440083120313B201B3010030A7000030A600D8
:101554000030A5000030A400B10183120313320847
:10156400B800381CB62AB72AB92AA617BD2A7F3074
:10157400FF007F08A6053808A8000310280CA70060
:101584005F29080083120313C8003430C100A02C63
:10159400253047060319CF2AD02ADA2A48088400BE
:1015A4004708831380000130FF007F08C807A02C80
:1015B400C501C601C401E52A44150130B207031868
:1015C400B30A0030B3073308FF00320884000A1658
:1015D4008A1500200A128A15BC00BD013D08003A94
:1015E4000319F52AFA2A3C08303A0319DE2AFA2AA2
:1015F4003308FF00320884000A168A1500200A12F4
:101604008A150A168A1102220A128A15031C0B2B48
:101614000C2B552B83120313C501C6010A30831208
:101624000313A0000030A1004608A3004508A2004F
:101634000A168A11AA220A128A1583120313210890
:10164400C6002008C5003308FF00320884000A16CB
:101654008A1500200A128A15D03EBC00FF300318F8
:101664000030BD003C08C5070318C60A3D08C6077C
:101674000130B2070318B30A0030B3073308FF0080
:10168400320884000A168A1500200A128A150A16DE
:101694008A1102220A128A150318512B522B102B7D
:1016A400552B44177D2B831203133308BD003208D6
:1016B400BC00B20A0319B30A3D08FF003C088400C9
:1016C4000A168A1500200A128A15C700BE00BF0137
:1016D4003F08003A03196F2BA02C3E08003A031967
:1016E400B62C643A03197D2B0D3A03197D2B1C3A51
:1016F4000319532BA02C441B802B812B9B2B4108BB
:10170400840083130008C200840A0008C300023066
:10171400FF007F08C107C31F902B912BA72B033019
:10172400FF007F08C404C209C309C20A0319C30A1B
:10173400A72B4108840083130008C200840A000810
:10174400C3000230FF007F08C107C701C70A47086A
:10175400BC003C07123E840098300318013EFF0091
:101764000A168A1500200A128A15BD000A168A155F
:1017740000200A128A15BE003E084302031DC42B32
:101784003D0842020318C72BC82BC92BD32B0130A9
:10179400FF007F08C70705304706031DD22BD32B54
:1017A400A92B450846040319D82BD92BE52B44084B
:1017B40003390319DE2BDF2BE52BFF30C507031894
:1017C400C60AFF30C6074608803A803C031DEC2B4E
:1017D400450847020318EF2BF02BFC2B831203134D
:1017E4004708BC00BD013C08C5023D08031CC603F4
:1017F400C602002C83120313C501C601441D032C29
:10180400042C2F2C440803390319092C0A2C132CFB
:10181400480884002D30831380000130FF007F08C6
:10182400C807450846040319182C192C592C4808D4
:1018340084003030831380000130FF007F08C80724
:10184400FF30C5070318C60AFF30C607450846041B
:10185400031D2D2C2E2C192C592C45084604031934
:10186400342C352C4A2C4808840020308313800003
:101874000130FF007F08C807FF30C5070318C60AF8
:10188400FF30C60745084604031D492C4A2C352C55
:101894004408033903194F2C502C592C4808840050
:1018A4002D30831380000130FF007F08C8074708EC
:1018B400C000972C0A30AD000030AE004008BC00D8
:1018C4003C07123E840098300318013EFF000A16BC
:1018D4008A1500200A128A15A6000A168A15002005
:1018E4000A128A15A7004308A9004208A8000A168C
:1018F4008A11C2230A128A15831203132708B0001F
:101904002608AF000A168A11FA220A128A158312CF
:1019140003132D08303EC70048088400470883138A
:1019240080000130FF007F08C807FF30FF007F08F8
:10193400C007400A031D9F2CA02C5C2C3308BD005B
:101944003208BC00B20A0319B30A3D08FF003C0880
:1019540084000A168A1500200A128A15C70047084F
:10196400031DB52CB62CCA2A4808840083138001B1
:101974000800831203133D088039C7003D08C200E4
:101984004207CD00BC1FC72CC82CC92C4D144D08D0
:101994000319CD2CCE2CDD2C4D0A031DD22CD32CB7
:1019A400DB2C0030BD000030BC000030BB00003038
:1019B400BA00BC17E52C0030BD000030BC0000307C
:1019C400BB000030BA0041088039FF007F08C70619
:1019D4004108C2004207C800C01FF12CF22CF32CAE
:1019E400481448080319F72CF82C072D480A031D3E
:1019F400FC2CFD2C052D0030C1000030C00000304F
:101A0400BF000030BE00C0170F2D0030C1000030F1
:101A1400C0000030BF000030BE0048080319132D79
:101A2400142D192D4D08031D182D192D222D0030AC
:101A3400BD000030BC000030BB000030BA00FF2FF6
:101A44003A08A00040080A168A11D1220A128A15FF
:101A5400831203132108D3002008D2005208C200C5
:101A6400C301C401C5014508CC004408CB004308A8
:101A7400CA004208C9005308C200C301C401C50119
:101A84004508D1004408D0004308CF004208CE00E6
:101A94003B08A0003F080A168A11D1220A128A15AF
:101AA400831203132108D3002008D2005208C20075
:101AB400C301C401C5014208C9074308031103183F
:101AC400013E0319662DCA07440803110318013E99
:101AD40003196D2DCB07450803110318013E0319A3
:101AE400742DCC075308C200C301C401C5014208C8
:101AF400CE07430803110318013E0319822DCF07B3
:101B0400440803110318013E0319892DD007450821
:101B140003110318013E0319902DD1073C08A000BE
:101B24003E080A168A11D1220A128A158312031357
:101B34002108D3002008D2005208C200C301C40106
:101B4400C5014208C907430803110318013E0319DC
:101B5400AC2DCA07440803110318013E0319B32D21
:101B6400CB07450803110318013E0319BA2DCC070E
:101B74005308C200C301C401C5014208CE0743088B
:101B840003110318013E0319C82DCF07440803119C
:101B94000318013E0319CF2DD0074508031103187C
:101BA400013E0319D62DD1070830C2000310C90D18
:101BB400CA0DCB0DCC0DC20BD82D3B08A0003E089E
:101BC4000A168A11D1220A128A15831203132108D4
:101BD400D3002008D2005208C2005308C300C40135
:101BE400C5014208C907430803110318013E03193C
:101BF400FC2DCA07440803110318013E0319032EE0
:101C0400CB07450803110318013E03190A2ECC071C
:101C14003A08A0003F080A168A11D1220A128A152E
:101C2400831203132108D3002008D2005208C200F3
:101C34005308C300C401C5014208C907430803117E
:101C44000318013E0319272ECA0744080311031879
:101C5400013E03192E2ECB07450803110318013E3C
:101C64000319352ECC070830C2000310C90DCA0D64
:101C7400CB0DCC0DC20B372E3A08A0003E080A1635
:101C84008A11D1220A128A15831203132108D30060
:101C94002008D2005208C2005308C300C401C50181
:101CA4004208C907430803110318013E03195B2EB8
:101CB400CA07440803110318013E0319622ECB0717
:101CC400450803110318013E0319692ECC073B088C
:101CD400A00040080A168A11D1220A128A1583121A
:101CE40003132108D3002008D2005208C20053086D
:101CF400C300C401C5014208CE07430803110318F9
:101D0400013E0319862ECF07440803110318013E30
:101D140003198D2ED007450803110318013E03193A
:101D2400942ED1073C08A0003F080A168A11D1223C
:101D34000A128A15831203132108D3002008D20043
:101D44005208C2005308C300C401C5014208CE07AB
:101D5400430803110318013E0319B12ECF074408A9
:101D640003110318013E0319B82ED00745080311C7
:101D74000318013E0319BF2ED1073C08A0004008F8
:101D84000A168A11D1220A128A1583120313210812
:101D9400D3002008D2005208C2005308C300C40173
:101DA400C50108300310C20DC30DC40DC50DFF3E9F
:101DB400031DD42E4208CE07430803110318013E25
:101DC4000319E52ECF07440803110318013E031934
:101DD400EC2ED007450803110318013E0319F32E16
:101DE400D1074908C2004A08C3004B08C4004C0884
:101DF400C50018300310C50CC40CC30CC20CFF3E44
:101E0400031DFC2E4208CE07430803110318013EAC
:101E140003190D2FCF07440803110318013E0319BA
:101E2400142FD007450803110318013E03191B2F73
:101E3400D1070830C2000310C90DCA0DCB0DCC0D5B
:101E4400C20B1D2F4D084807C200C301C30D420831
:101E5400823ED20043080318013EFF3ED3004F2FB9
:101E64000130C2000310CE0DCF0DD00DD10DC20B29
:101E7400342FCC1F3E2F3F2F402F4E140130C20071
:101E84000310C90DCA0DCB0DCC0DC20B422FFF3070
:101E9400D2070318D30AFF30D307D01F522F532F72
:101EA400322FC801CC1F572F582F742FFF304905EC
:101EB400C200FF304A05C300FF304B05C4007F3029
:101EC4004C05C500450844044304420403196B2F20
:101ED4006C2F6F2FC801C80A742F4E1C722F732FDA
:101EE400742F6C2F48080319782F792FAA2F0130EB
:101EF400CE07003003180130CF070030031801303B
:101F0400D007003003180130D107511C8A2F8B2FC2
:101F1400AA2F4E08C2004F08C3005008C40051083D
:101F2400C5000130C600450DC50CC40CC30CC20C61
:101F3400C60B952F4508D1004408D0004308CF00B4
:101F44004208CE000130D2070318D30A0030D30769
:101F54005308803AFF0080307F02031DB32FFF3007
:101F64005202031CB62FB72FC22F7F3083120313E4
:101F7400D1008030D0000030CF000030CE00F32FED
:101F8400831203135308803AFF0080307F02031D3D
:101F9400CD2F013052020318D02FD12FDD2F003066
:101FA40083120313D1000030D0000030CF00003082
:101FB400CE00C701F32F831203135208CD00FF3064
:101FC400CE05FF30CF057F30D0050030D1054D1C44
:101FD400EC2FED2FEE2FD0174D08C2000310420C4A
:101FE400D1004708FF007F08D1045108BD00500804
:0C1FF400BC004F08BB004E08BA000800FB
:1023A200F4340134003400340034003400300A16AE
:1023B2008A112B220A168A1101300A168A112B223F
:1023C2000A168A11080083120313A000831603134E
:1023D200981CEC29ED29E7298312031320089900A0
:1023E20008002430831603139800903083120313DD
:1023F20098000C308316031399008312031399017A
:10240200080083120313A100A0013A30210203182D
:102412000B2A0C2A142A30302102031C112A122AF8
:10242200142AA001A00A200C08008312031320081A
:10243200831203178D00831603170C1483120317DC
:102442000C0883120313A200A3012208A000230890
:10245200A100080083120313A300861223080A16A0
:102462008A1163220A168A11831203130616063092
:1024720083120313A2002F30A100A10B3E2AA20B4C
:102482003E2A432A831203130612080083120313FF
:102492002008831203178D0083120313220883126C
:1024A20003178C00831603170C158B1355308D0000
:1024B200AA308D008C148B170C118C18612A622A99
:1024C2005E2A080083120313A000201C692A6A2ACC
:1024D2006C2A86156D2A8611A01C702A712A732A0D
:1024E2000615742A0611201D772A782A7A2A86145C
:1024F2007B2A8610A01D7E2A7F2A812A0614822A20
:10250200061008000B1D862A872AA12A0B113D30CE
:102512008312031381000130F6070318F70A003013
:10252200F707143076067704031D982A992AA12A00
:10253200F601F701A0300A168A1108240A168A1138
:1025420075088A0074088400730E8300FE0E7E0EE6
:10255200090083120313A401A501201CB12AB22A87
:10256200B82A2208A4070318A50A2308A5070130E0
:102572000310A20DA30DFF3E031DB92A0130031063
:10258200A10CA00CFF3E031DC02A20082104031D3C
:10259200CB2ACC2AAE2A2508A1002408A0000800D4
:1025A20083120313A800A401A5012008A200A3011D
:1025B2002208A6002308A700281CE02AE12AE72A0D
:1025C2002608A4070318A50A2708A5070130031047
:1025D200A60DA70DFF3E031DE82A0310A80C28082C
:1025E200031DF42AF52ADD2A2508A1002408A000EB
:1025F2000800831203132D082E040319012B022B4A
:10260200312BB101B10A102B01300310AD0DAE0D0B
:10261200FF3E031D062B0130FF007F08B107AE1FEE
:10262200132B142B052B2E083002031D1A2B2D08F9
:102632002F02031C1D2B1E2B242B2D08AF022E084C
:10264200031CB003B00201300310AE0CAD0CFF3E10
:10265200031D252B0130B102031D302B312B142B0E
:102662003008AE002F08AD00080083120313AA0140
:10267200AB015F2B2A082507A8002608A70003182C
:10268200A70AAA1F452BA703831203132708A90031
:102692002908FF00280884000A168A1500200A1655
:1026A2008A110A128A1502200A168A11013083122F
:1026B2000313AA070318AB0A0030AB072A08250741
:1026C200A8002608A7000318A70AAA1F692BA703B8
:1026D200831203132708A9002908FF002808840091
:1026E2000A168A1500200A168A11003A031D7A2B4F
:1026F2007B2B3B2B080083120313A601A701A52BFA
:1027020026082107A4002208A3000318A30AA61F73
:102712008B2BA303831203132308A5002508FF00B4
:10272200240884000A168A1500200A168A110A163D
:102732008A11E4210A168A11013083120313A607B3
:102742000318A70A0030A70726082107A4002208B9
:10275200A3000318A30AA61FAF2BA303831203131C
:102762002308A5002508FF00240884000A168A15FC
:1027720000200A168A11003A031DC02BC12B812B9F
:10278200080083120313AA01AB01260827040319C8
:10279200CB2BCC2B032CAC01AC0ADA2B013003106F
:1027A200A60DA70DFF3E031DD02B0130FF007F08B1
:1027B200AC07A71FDD2BDE2BCF2B01300310AA0D98
:1027C200AB0DFF3E031DDF2B27082902031DEB2B58
:1027D20026082802031CEE2BEF2BF62B2608A80254
:1027E2002708031CA903A9022A1401300310A70C0D
:1027F200A60CFF3E031DF72B0130AC02031D022C79
:10280200032CDE2B2B08A7002A08A6000800F200E2
:102812007208043E8400013083178007840A03187B
:10282200800A7208043E84000008F000840A00084E
:10283200F100003071023C3003197002031C222C9B
:10284200232C4F2C7208043E84008001840A8001EC
:102852007208023E840001308007840A0318800A4D
:102862007208023E84000008F000840A0008F100A9
:10287200003071023C3003197002031C412C422CBF
:102882004F2C7208023E84008001840A8001720883
:10289200840001308007840A0318800A080083122A
:1028A2000313A6002603031D572C582C772C24084B
:1028B2007F3EA9002908A50004300310A50CFF3EA5
:1028C200031D5E2C2508A70029080F39A800270838
:1028D2000A168A112B220A168A1183120313280858
:1028E2000A168A112B220A168A119B2C02302606FE
:1028F200031D7C2C7D2C9B2C2408BF3EA90029089B
:10290200A50004300310A50CFF3E031D832C2508EF
:10291200A70029080F39A80027080A168A112B22B6
:102922000A168A118312031328080A168A112B2207
:102932000A168A11080000300A168A1163220A1642
:102942008A111A3083120313A500F730A400A40BD6
:10295200A82CA50BA82CAD2C03300A168A112B2209
:102962000A168A11073083120313A5007C30A400D3
:10297200A40BB92CA50BB92C000003300A168A113E
:102982002B220A168A110F3083120313A500473037
:10299200A400A40BCA2CA50BCA2C03300A168A1158
:1029A2002B220A168A1102300A168A112B220A16C3
:1029B2008A1102300A168A112B220A168A1108304D
:1029C2000A168A112B220A168A1100300A168A1157
:1029D2002B220A168A110C300A168A112B220A1689
:1029E2008A1100300A168A112B220A168A11063021
:1029F2000A168A112B220A168A1108000310831262
:102A02000313220D230DA9002908031D092D0A2DE8
:102A1200132D0030A3000030A2000030A1000030CE
:102A2200A000762D2008A4002108A5002208A600F7
:102A32002308A7001F300310A70CA60CA50CA40C9A
:102A4200FF3E031D1C2D2408A800A217FF30A0057D
:102A5200FF30A105FF30A2050030A3059630A90280
:102A6200A91F342D352D4F2D2908803A973E031882
:102A72003B2D3C2D3D2D0A2D01300310A30CA20C41
:102A8200A10CA00CFF3E031D3E2D0130FF007F086C
:102A9200A907031D4D2D4E2D3D2D662D20302902F7
:102AA200031C542D552D612D0A2D0130A400031055
:102AB200A00DA10DA20DA30DA40B582D0130A9024A
:102AC2002908031D652D662D562D280803196A2D28
:102AD2006B2D762DA009A109A209A309A00A031949
:102AE200A10A0319A20A0319A30A080009187A2DD8
:102AF2007D2D0A128A11C42E0718802D812D7A2D60
:102B02008918842D852D7A2D83160313E401E5019E
:102B12008312031387198E2D912D0A128A112F2EDB
:102B22000818942D952D8E2DF43083160317200648
:102B3200031DA02D210303199F2DA02DB22DF530C9
:102B42002006031DA92D21030319A82DA92DB22D9D
:102B5200F6302006031DB12D2103031DB12DB22D28
:102B62000D2E22032304031DB72DB82D0D2E0A1698
:102B72008A11D7210A168A1183160313EC01ED017B
:102B82006D08803AFF0080307F02031DCA2D0A3093
:102B92006C02031CCD2DCE2DCF2D052E83120313D7
:102BA200A401A40A01300A168A1150240A168A11B5
:102BB200AA3083120313A5009830A6000A168A11C0
:102BC20036230A168A1183120313A401A40A0230BF
:102BD2000A168A1150240A168A11F9308312031335
:102BE200A5009830A6000A168A1136230A168A1101
:102BF200831203130516013083160313EC0703181F
:102C0200ED0A0030ED07C12D0A168A11D7210A16E6
:102C12008A11831203130512F43083160317200658
:102C2200031D182E21030319172E182E2C2EF530F2
:102C32002006031D212E21030319202E212E2C2EC6
:102C4200F6302006031D292E2103031D292E2C2ECA
:102C52000A168A11892E22082304031D312E322ED0
:102C6200292E0A168A11D7210A168A1183160313EE
:102C7200EE01EF016F08803AFF0080307F02031DF2
:102C8200442E0A306E02031C472E482E4B2E0A1683
:102C92008A11812E83120313A401A40A01300A1699
:102CA2008A1150240A168A11AA3083120313A5002E
:102CB2009830A6000A168A1136230A168A11831240
:102CC2000313A401A40A02300A168A1150240A1618
:102CD2008A11F93083120313A5009830A6000A1650
:102CE2008A1136230A168A1183120313051601303C
:102CF20083160313EE070318EF0A0030EF073B2E8B
:102D02000A168A11D7210A168A1183120313051291
:102D1200E83083160317200603300319210603192E
:102D2200932E942EA62EE930200603300319210695
:102D320003199C2E9D2EA62EEA302006033003197D
:102D42002106031DA52EA62E012F22082304031DF2
:102D5200AB2EAC2E012F0A168A11D7210A168A1120
:102D620083160317900191011108803AFF00803009
:102D72007F02031DBE2E0A301002031CC12EC22E7A
:102D8200C32EF92E83120313A401A40A01300A16DA
:102D92008A1150240A168A11AA3083120313A5003D
:102DA2009830A6000A168A1136230A168A1183124F
:102DB2000313A401A40A02300A168A1150240A1627
:102DC2008A11F93083120313A5009830A6000A165F
:102DD2008A1136230A168A1183120313051601304B
:102DE2008316031790070318910A00309107B52E36
:102DF2000A168A11D7210A168A11831203130512A1
:102E0200DC30831603172006053003192106031947
:102E12000B2F0C2F1E2FDD30200605300319210643
:102E22000319142F152F1E2FDE302006053003192B
:102E32002106031D1D2F1E2F792F22082304031D97
:102E4200232F242F792F0A168A11D7210A168A11C5
:102E520083160317920193011308803AFF00803012
:102E62007F02031D362F0A301202031C392F3A2F1C
:102E72003B2F712F83120313A401A40A01300A16F7
:102E82008A1150240A168A11AA3083120313A5004C
:102E92009830A6000A168A1136230A168A1183125E
:102EA2000313A401A40A02300A168A1150240A1636
:102EB2008A11F93083120313A5009830A6000A166E
:102EC2008A1136230A168A1183120313051601305A
:102ED2008316031792070318930A003093072D2FC6
:102EE2000A168A11D7210A168A11831203130512B0
:102EF200D030831603172006073003192106031961
:102F0200832F842F962FD1302006073003192106F4
:102F120003198C2F8D2F962FD230200607300319DC
:102F22002106031D952F962FF12F22082304031D3E
:102F32009B2F9C2FF12F0A168A11D7210A168A116C
:102F420083160317940195011508803AFF0080301B
:102F52007F02031DAE2F0A301402031CB12FB22FC1
:102F6200B32FE92F83120313A401A40A01300A1616
:102F72008A1150240A168A11AA3083120313A5005B
:102F82009830A6000A168A1136230A168A1183126D
:102F92000313A401A40A02300A168A1150240A1645
:102FA2008A11F93083120313A5009830A6000A167D
:102FB2008A1136230A168A11831203130516013069
:102FC2008316031794070318950A00309507A52F57
:102FD2000A168A11D7210A168A11831203130512BF
:102FE200C43083160317200609300319210603197A
:102FF200FD2F0A128A113D280A128A114F28FF1B3F
:103002000A2883137F1883170008840A0319FF0A0A
:1030120008007F087F398A000408840A0319FF0A1E
:103022008200013400340A34003464340034E83459
:1030320003341034273420342034203449344C34BF
:10304200453452344C3445344D34453420344834BC
:1030520041345434413453344934203420342034FC
:1030620020342034203420342034003420342034DE
:1030720020344634453445344434203452344134C7
:103082005434453420344534523452344F3452345B
:1030920020342034203420342034203420340034AE
:1030A20020342034203444344F344E344D344534AB
:1030B2002034483441345434413453344934203474
:1030C200203420342034203420342034203400347E
:1030D20020342034203452344F3454344134543464
:1030E20049344F344E3420344534523452344F3400
:1030F200523420342034203420342034203400341C
:1031020050345534543420344934543420344934FE
:103112004E342034533454344F34503420345334E6
:1031220054344134543445340034533454344F34D9
:103132005034203444345534523455344D3455349B
:103142004E344134203447344534543449345234B3
:1031520000345934413447342034423441344B34FE
:1031620049344D344934203459344134503449348B
:103172004E3449345A34003455345A344D3441347F
:103182004E344C344134523420344D3441344B3477
:1031920049344E34413400342034463457344434B4
:1031A200203420342034203420342034203420347D
:1031B2002034203400347734773477342E34623438
:1031C2006F347234763465346B342E3463346F3436
:1031D2006D34003420345234453457342034203492
:1031E200203420342034203420342034203400345D
:1031F2004F3449344C342034543448344534203428
:103202004734453441345234533400342034533437
:1032120054344F3450342034203420342034203479
:103222002034203400342534353475346834203465
:1032320025343034323475346D34003446346534D8
:103242006534643452346134743465343A3400344D
:103252002034463457344434203431342E34363416
:103262004B34003420345234453457342034313412
:103272002E3436344B3400342534753425347534C9
:10328200253475342E3425347534003420344634D4
:103292005734443420344C344D34543400342034C4
:1032A20052344534573420344C344D345434003481
:1032B2007334253464340D340A3400342534303404
:1032C2003034333475340034733430340D340A34CA
:1032D2000034523450344D343A340034563433349A
:0232E2000034B6
:02400E00793FF8
:00000001FF
