:060000000A128A110E280D
:10000800FE00030EF6000408F7000A08F8000A12BA
:100018008A11E32E0A128A1111280A128A11FB2763
:100028000A128A11FB000A128A11FC270A128A1185
:10003800FC008317C4308400D3300A168A1539258A
:100048000A128A111030840030300A168A153925B0
:100058000A128A11ED01EE01EF0183010A168A11D5
:10006800942E8312031309193A283B284C2809189F
:100078003E283F284C280718422843284C2889182E
:10008800462847284C2883160317AE01AF01852858
:10009800A401A40A01300A168A1142200A128A1100
:1000A8008F3083120313A5009830A6000A168A150C
:1000B8006E270A128A1183120313A401A40A0230BC
:1000C8000A168A1142200A128A117A3083120313FF
:1000D800A5009830A6000A168A156E270A128A11FA
:1000E800033083160313A2008A30A1005530A00004
:1000F800A00B7C28A10B7C28A20B7C280A128A154D
:10010800FD2F8312031387198A288D280A128A154E
:10011800F52E0818902891288A28831603174A086C
:10012800031D972898288A288312031309199D28E4
:100138009E28AD280918A128A228AD280718A528A7
:10014800A628AD288918A928AA28AD288316031738
:10015800CA017B08013E83120313A6007C0803181A
:10016800013E003EA7000A168A1590250A128A1138
:1001780083120313270883160317A500831203139A
:10018800260883160317A4007C0883120313A10012
:100198007B08A000FA30A2000030A3000A168A15D6
:1001A80059260A128A11831203132008831603138F
:1001B800A00083120313210883160313A1007C08EF
:1001C80083120313A7007B08A6000A168A15902538
:1001D8000A128A11831203132608831603132007B1
:1001E800A2008312031327080318270A8316031390
:1001F8002107A3002208EE3E83160317AC008316DE
:10020800031323080318013E023E83160317AD00AB
:100218002D0883120313A700831603172C088312D3
:100228000313A6000A168A1590250A128A1183124A
:100238000313270883160317C30083120313260822
:1002480083160317C2000D3083120313D5009930AB
:10025800D60083160317430883120313D8008316A6
:100268000317420883120313D700831603172508C0
:1002780083120313DA008316031724088312031367
:10028800D900CE300A168A1513260A128A110A30A6
:1002980083120313A40001300A168A1142200A129D
:1002A8008A11D23083120313A5009830A6000A16CB
:1002B8008A156E270A128A110B3083120313A400C1
:1002C80001300A168A1142200A128A11CE3083128E
:1002D8000313A5000030A6000A168A156E270A1215
:1002E8008A11F43083120313AA000130AB0083167D
:1002F8000317430883120313AD008316031742083C
:1003080083120313AC000A168A11E8200A128A1114
:10031800831203132A082B04031D932994299C296B
:100328008316031742084304031D9B299C29EC29C3
:10033800F43083120313AA000130AB0083160317AD
:10034800430883120313AD00831603174208831270
:100358000313AC000A168A11E8200A128A118312C4
:1003680003132A032B04031DBA29BB29C3298316A7
:10037800031742034304031DC229C329EC29F4309F
:1003880083120313AA000130AB0083160317430836
:1003980083120313AD008316031742088312031355
:1003A800AC000A168A11E8200A128A110230831258
:1003B80003132A062B04031DE229E329F729023037
:1003C80083160317420643040319EB29EC29F7297E
:1003D8004F085004031DF129F229F7290A128A113E
:1003E800A9270A128A11831203131F08C739103864
:1003F8009F000F3083160313A000A00B012A042AC4
:10040800831203131F151F190A2A0B2A072A83169A
:1004180003131E08A000A101831203131E088316EC
:100428000313A200A3012208A300A20120082204AA
:1004380083120313A00083160313210823048312D5
:100448000313A100A201A11BA2032208A3000130EB
:100458000A168A11D8230A128A1183120313230851
:1004680083160317930083120313220883160317B6
:100478009200831203132108831603179100831235
:1004880003132008831603179000443083120313C4
:10049800A3008030A2000030A1000030A000831625
:1004A8000317130883120313A700831603171208F0
:1004B80083120313A600831603171108831203136C
:1004C800A50083160317100883120313A4000A1249
:1004D8008A1114250A128A1183120313230883161A
:1004E8000317970083120313220883160317960035
:1004F800831203132108831603179500831203132D
:100508002008831603179400831203131F08C739A2
:1005180018389F000F3083160313A000A00B922AEF
:10052800952A831203131F151F199B2A9C2A982AA0
:100538001E0883160317A100831603131E088316CB
:100548000317A000170883120313BD0083160317AF
:10055800160883120313BC008316031715088312A9
:100568000313BB0083160317140883120313BA007E
:1005780083160317200883120313A000831603179A
:10058800210883120313A1000030A11BFF30A20031
:10059800A30001300A168A11D8230A128A1183127D
:1005A80003132308C1002208C0002108BF00200847
:1005B800BE000A128A1531200A128A118312031307
:1005C8003D08831603179F00831203133C08831604
:1005D80003179E00831203133B08831603179D001D
:1005E800831203133A08831603179C0040308312C2
:1005F8000313BD004030BC000030BB000030BA001F
:10060800831603171F0883120313C10083160317E9
:100618001E0883120313C000831603171D088312D4
:100628000313BF00831603171C0883120313BE00AD
:100638000A128A1531200A128A11831203133D08FF
:1006480083160317BB00831203133C088316031792
:10065800BA00831203133B0883160317B9008312E9
:1006680003133A0883160317B800E83083120313FC
:10067800AA000330AB00831603173B088312031349
:10068800A300831603173A0883120313A2008316E4
:100698000317390883120313A100831603173808B8
:1006A80083120313A0000A168A11E4220A128A117F
:1006B800831203132108AD002008AC000A168A1122
:1006C8000D220A128A11831203132B0883160317AB
:1006D800B700831203132A0883160317B600643081
:1006E80083120313AA000030AB00831603173B08DC
:1006F80083120313A300831603173A088312031304
:10070800A20083160317390883120313A100831666
:100718000317380883120313A0000A168A11E4226B
:100728000A128A1183120313200883160313A000E8
:1007380083120313210883160313A10083120313E2
:10074800220883160313A2008312031323088316B7
:100758000313A30083160317370883120313A1009A
:1007680083160317360883120313A0001830A2005B
:10077800FC30A3000A168A1559260A128A11831218
:100788000313200883160313200783120313AC00F6
:1007980021080318210A8316031321078312031360
:1007A800AD000A168A110D220A128A118312031348
:1007B8002B0883160317B500831203132A08831620
:1007C8000317B4000A3083120313AA000030AB00E9
:1007D800831603173B0883120313A300831603171A
:1007E8003A0883120313A2008316031739088312E9
:1007F8000313A10083160317380883120313A000FC
:100808000A168A11E4220A128A1183120313200895
:1008180083160313A00083120313210883160313FE
:10082800A10083120313220883160313A200831264
:100838000313230883160313A3008316031737082B
:1008480083120313A10083160317360883120313B8
:10085800A0001830A200FC30A3000A168A155926F9
:100868000A128A1183120313200883160313200720
:10087800A4008312031321080318210A8316031303
:100888002107A50083160317350883120313A10057
:1008980083160317340883120313A0009C30A200A8
:1008A800FF30A3000A168A1559260A128A118312E4
:1008B8000313200883160313240783120313AC00C1
:1008C80021080318210A831603132507831203132B
:1008D800AD000A168A110D220A128A118312031317
:1008E8002B0883160317A700831203132A088316FD
:1008F8000317A6000A3083120313AA000030AB00C6
:10090800831603173B0883120313A30083160317E8
:100918003A0883120313A2008316031739088312B7
:100928000313A10083160317380883120313A000CA
:100938000A168A11E4220A128A1183120313210863
:10094800AD002008AC000A168A11E8200A128A11A4
:10095800831203132B0883160317A90083120313AA
:100968002A0883160317A800831203131F08C73920
:1009780008389F000F3083160313A000A00BC22C69
:10098800C52C831203131F151F19CB2CCC2CC82C74
:10099800831603131E08A000A101831203131E0867
:1009A80083160313A200A3012208A300A2012008B2
:1009B800220483120313A0008316031321082304BF
:1009C80083120313A100A201A11BA2032208A30002
:1009D80001300A168A11D8230A128A1183120313C6
:1009E800230883160317B300831203132208831600
:1009F8000317B20083120313210883160317B100EB
:100A080083120313200883160317B00083120313FD
:100A18000919112D0A128A15762B0A128A15A42B88
:100A28008312031327088039B1002708A800280774
:100A3800B800A61F202D212D222D3814380803199F
:100A4800262D272D372D380A031D2B2D2C2D342D1F
:100A58000030A7000030A6000030A5000030A40038
:100A6800A617A7013F2D0030A7000030A6000030D0
:100A7800A5000030A40023088039FF007F08B106D4
:100A88002308A8002807B900A21F4B2D4C2D4D2D77
:100A9800391439080319512D522D622D390A031DB5
:100AA800562D572D5F2D0030A3000030A2000030D6
:100AB800A1000030A000A217A3016A2D0030A300F6
:100AC8000030A2000030A1000030A000230822045A
:100AD80021042004031D712D722D8B2D0030A700D9
:100AE8000030A6000030A5000030A4008030A60425
:100AF8007F30A7043108FF007F08A7042708A30058
:100B08002608A2002508A1002408A000E22E380823
:100B1800031D8F2D902D992D0030A3000030A200C9
:100B28000030A1000030A000E22E3808A800A9017A
:100B38002908AB0039082802AA00031CAB032A08BD
:100B48007F3EB2002B080318013E003EB300270881
:100B5800B0002608AF002508AE002408AD0000301C
:100B6800A7000030A6000030A5000030A400003027
:100B7800B7000030B6000030B5000030B400B9014D
:100B88000F2E39080319C92DCA2DEA2D0130A800E6
:100B98000310AD0DAE0DAF0DB00DA80BCC2D01306F
:100BA800A8000310A40DA50DA60DA70DA80BD52D03
:100BB800B71FDF2DE02DE12D24140130A80003100C
:100BC800B40DB50DB60DB70DA80BE32D23083002F3
:100BD800031DF82D22082F02031DF82D21082E02CF
:100BE800031DF82D20082D02031CFB2DFC2D0B2EB8
:100BF80037172008AD022108031C210FAE02220876
:100C0800031C220FAF022308031C230FB00201307C
:100C1800FF007F08B9071A303902031C142E152E5D
:100C2800C52D30082F042E042D0403191C2E1D2E4B
:100C38003C2E34143C2E0130A8000310A40DA50D41
:100C4800A60DA70DA80B212EB71F2B2E2C2E2D2E4F
:100C580024140130A8000310B40DB50DB60DB70D5E
:100C6800A80B2F2EFF30B2070318B30AFF30B307C3
:100C7800A61F3F2E402E1F2EB901B71F442E452E0A
:100C8800612EFF303405A800FF303505A900FF307C
:100C98003605AA007F303705AB002B082A04290443
:100CA80028040319582E592E5C2EB901B90A612E51
:100CB800241C5F2E602E612E592E39080319652ECB
:100CC800662E972E0130A407003003180130A507BF
:100CD800003003180130A607003003180130A707B9
:100CE800271C772E782E972E2408A8002508A900FF
:100CF8002608AA002708AB000130AC002B0DAB0C6E
:100D0800AA0CA90CA80CAC0B822E2B08A7002A0849
:100D1800A6002908A5002808A4000130B207031876
:100D2800B30A0030B3073308803AFF0080307F02EF
:100D3800031DA02EFF303202031CA32EA42EB22EB8
:100D4800FF3083120313B2000030B3000030A70055
:100D58000030A6000030A5000030A4008312031361
:100D68003308803AFF0080307F02031DBD2E01301A
:100D780032020318C02EC12ECE2E83120313B201E5
:100D8800B3010030A7000030A6000030A5000030F5
:100D9800A400B101831203133208B800381CD52E01
:100DA800D62ED82EA617DC2E7F30FF007F08A6058A
:100DB8003808A8000310280CA7007E2D08000B1D7A
:100DC800E62EE72EA02F0B113D308312031381006E
:100DD800013083160317C6070318C70A0030C70770
:100DE800143046064704031DFA2EFB2EA02FC60119
:100DF800C701CB300A168A11A6210A128A110130BE
:100E080083160317C8070318C90A0030C9073C30FE
:100E180048064904031D112F122F142FC801C901B8
:100E28007C08F1007B08F0004E08F3004D08F20042
:100E38000A168A15A5250A128A117B08013EF000B8
:100E48007C080318013E003EF10083160317500882
:100E5800F3004F08F2000A168A15A5250A128A110E
:100E68007B08023EF0007C080318013E003EF100BA
:100E7800831603175208F3005108F2000A168A1560
:100E8800A5250A128A117B08033EF0007C08031886
:100E9800013E003EF100831603174C08F3004B088F
:100EA800F2000A168A15A5250A128A117C08F10093
:100EB8007B08F0000A168A156C250A128A11C830B8
:100EC800700671040319692F6B2F01306C2F0030E5
:100ED800F400F5017408F9007508FA007A08F100C1
:100EE8007908F0000A168A156C250A128A1170080A
:100EF80071040319802F812FA02F7B08033EF00077
:100F08007C080318013E003EF1000A168A156C257C
:100F18000A128A117008F4007108F5000310F40D24
:100F2800F50D0310F40DF50D7B087407FB007C0824
:100F380003187C0A7507FC0078088A007708840083
:100F4800760E8300FE0E7E0E09000A168A154125CC
:100F58000A128A1183120313AC01AD018312031321
:100F6800A401A40A01300A168A1142200A128A1121
:100F7800A33083120313A5009830A6000A168A1519
:100F88006E270A128A1183120313A401A40A0230DD
:100F98000A168A1142200A128A11F23083120313A8
:100FA800A5009830A6000A168A156E270A128A111B
:100FB8008312031305160130AC070318AD0A00307D
:100FC800AD072D08803AFF0080307F02031DEE2F09
:100FD8000A302C02031CF12FF22FB22F0A168A15A1
:100FE80041250A128A1183120313051208000134DD
:040FF80000340800B9
:10100E0083120313AE00AC01AD0123282B08A900F7
:10101E00AA012908A0002A08A1002808A2000A1681
:10102E008A118E200A128A15013083120313AC071F
:10103E000318AD0A0030AD072C082E07A9002908A9
:10104E00840083170008AB002B08031D2F283028BF
:10105E000D280800831203133D088039C7003D0890
:10106E00C2004207CD00BC1F3D283E283F284D142C
:10107E004D0803194328442853284D0A031D4828B8
:10108E00492851280030BD000030BC000030BB00A4
:10109E000030BA00BC175B280030BD000030BC0029
:1010AE000030BB000030BA0041088039FF007F08D5
:1010BE00C7064108C2004207CC00C01F6728682837
:1010CE0069284C144C0803196D286E287D284C0A8B
:1010DE00031D722873287B280030C1000030C00029
:1010EE000030BF000030BE00C01785280030C100A0
:1010FE000030C0000030BF000030BE004C080319A5
:10110E0089288A288F284D08031D8E288F28982815
:10111E000030BD000030BC000030BB000030BA0013
:10112E00752B3A08A00040080A168A1580260A1266
:10113E008A15831203132108D3002008D200520807
:10114E00C200C301C401C5014508CB004408CA0052
:10115E004308C9004208C8005308C200C301C401B5
:10116E00C5014508D1004408D0004308CF0042080D
:10117E00CE003B08A0003F080A168A1580260A12E8
:10118E008A15831203132108D3002008D2005208B7
:10119E00C200C301C401C5014208C80743080311B8
:1011AE000318013E0319DC28C9074408031103186C
:1011BE00013E0319E328CA07450803110318013E2F
:1011CE000319EA28CB075308C200C301C401C501A5
:1011DE004208CE07430803110318013E0319F828ED
:1011EE00CF07440803110318013E0319FF28D00747
:1011FE00450803110318013E03190629D1073C08BF
:10120E00A0003E080A168A1580260A128A15831235
:10121E0003132108D3002008D2005208C200C301D4
:10122E00C401C5014208C807430803110318013E53
:10123E0003192229C907440803110318013E031993
:10124E002929CA07450803110318013E031930293D
:10125E00CB075308C200C301C401C5014208CE0723
:10126E00430803110318013E03193E29CF07440812
:10127E0003110318013E03194529D0074508031130
:10128E000318013E03194C29D1070830C200031080
:10129E00C80DC90DCA0DCB0DC20B4E293B08A000BF
:1012AE003E080A168A1580260A128A15831203131F
:1012BE002108D3002008D2005208C2005308C300F0
:1012CE00C401C5014208C807430803110318013EB3
:1012DE0003197229C907440803110318013E0319A3
:1012EE007929CA07450803110318013E03198029FD
:1012FE00CB073A08A0003F080A168A1580260A1264
:10130E008A15831203132108D3002008D200520835
:10131E00C2005308C300C401C5014208C8074308F0
:10132E0003110318013E03199D29C907440803112F
:10133E000318013E0319A429CA074508031103180F
:10134E00013E0319AB29CB070830C2000310C80DAC
:10135E00C90DCA0DCB0DC20BAD293A08A0003E082F
:10136E000A168A1580260A128A158312031321087B
:10137E00D3002008D2005208C2005308C300C40193
:10138E00C5014208C807430803110318013E03199B
:10139E00D129C907440803110318013E0319D8299E
:1013AE00CA07450803110318013E0319DF29CB07AD
:1013BE003B08A00040080A168A1580260A128A15D4
:1013CE00831203132108D3002008D2005208C20052
:1013DE005308C300C401C5014208CE0743080311D8
:1013EE000318013E0319FC29CF0744080311031803
:1013FE00013E0319032AD007450803110318013EC5
:10140E0003190A2AD1073C08A0003F080A168A15BC
:10141E0080260A128A15831203132108D30020088E
:10142E00D2005208C2005308C300C401C5014208CD
:10143E00CE07430803110318013E0319272ACF07CD
:10144E00440803110318013E03192E2AD00745083C
:10145E0003110318013E0319352AD1073C08A000D9
:10146E0040080A168A1580260A128A15831203135B
:10147E002108D3002008D2005208C2005308C3002E
:10148E00C401C50108300310C20DC30DC40DC50D36
:10149E00FF3E031D4A2A4208CE07430803110318D4
:1014AE00013E03195B2ACF07440803110318013EBE
:1014BE000319622AD007450803110318013E0319C8
:1014CE00692AD1074808C2004908C3004A08C40067
:1014DE004B08C50018300310C50CC40CC30CC20C4D
:1014EE00FF3E031D722A4208CE074308031103185C
:1014FE00013E0319832ACF07440803110318013E46
:10150E0003198A2AD007450803110318013E03194F
:10151E00912AD1070830C2000310C80DC90DCA0D9B
:10152E00CB0DC20B932A4D084C07C200C301C30D4D
:10153E004208823ED20043080318013EFF3ED3000C
:10154E00C52A0130C2000310CE0DCF0DD00DD10D26
:10155E00C20BAA2ACB1FB42AB52AB62A4E140130C2
:10156E00C2000310C80DC90DCA0DCB0DC20BB82A8F
:10157E00FF30D2070318D30AFF30D307D01FC82A73
:10158E00C92AA82ACC01CB1FCD2ACE2AEA2AFF309F
:10159E004805C200FF304905C300FF304A05C400AC
:1015AE007F304B05C500450844044304420403192B
:1015BE00E12AE22AE52ACC01CC0AEA2A4E1CE82AC4
:1015CE00E92AEA2AE22A4C080319EE2AEF2A202BEE
:1015DE000130CE07003003180130CF07003003185A
:1015EE000130D007003003180130D107511C002BF9
:1015FE00012B202B4E08C2004F08C3005008C40018
:10160E005108C5000130C600450DC50CC40CC30CF5
:10161E00C20CC60B0B2B4508D1004408D000430862
:10162E00CF004208CE000130D2070318D30A003093
:10163E00D3075308803AFF0080307F02031D292B09
:10164E00FF305202031C2C2B2D2B382B7F30831294
:10165E000313D1008030D0000030CF000030CE0018
:10166E00692B831203135308803AFF0080307F02E8
:10167E00031D432B013052020318462B472B532BCD
:10168E00003083120313D1000030D0000030CF00A1
:10169E000030CE00C701692B831203135208CD0010
:1016AE00FF30CE05FF30CF057F30D0050030D1059D
:1016BE004D1C622B632B642BD0174D08C2000310F8
:1016CE00420CD1004708FF007F08D1045108BD002D
:1016DE005008BC004F08BB004E08BA00080007189F
:1016EE00792B7A2BA42B831603173308831203133B
:1016FE00A30083160317320883120313A200831666
:10170E000317310883120313A10083160317300841
:10171E0083120313A0000A168A11E4220A128A15F4
:10172E0083120313210D210C83160317C10083129C
:10173E000313200C83160317C000443083120313C7
:10174E00BD007A30BC000030BB000030BA0044301F
:10175E00A3008030A2000030A1000030A00083164C
:10176E000317330883120313A700831603173208D7
:10177E0083120313A6008316031731088312031373
:10178E00A50083160317300883120313A4000A1250
:10179E008A1114250A128A15831203132308C10015
:1017AE002208C0002108BF002008BE000A128A15B8
:1017BE0031200A128A15831203133D08831603176C
:1017CE009B00831203133C08831603179A0083129F
:1017DE0003133B08831603179900831203133A0869
:1017EE0083160317980083120313A401A40A023070
:1017FE000A168A1142200A128A1518308312031310
:10180E00A5009930A6000A168A156E270A128A15A7
:10181E00583083120313D5009930D6008316031760
:10182E001B0883120313A300831603171A088312CF
:10183E000313A20083160317190883120313A100C2
:10184E0083160317180883120313A0000A168A11B1
:10185E00E4220A128A15831203132108D8002008E5
:10186E00D700EC300A168A1513260A128A150A308A
:10187E0083120313A40002300A168A1142200A12A0
:10188E008A15EC3083120313A5000030A6000A1649
:10189E008A156E270A128A1583120313A401A40A4D
:1018AE0001300A168A1142200A128A1563308312F9
:1018BE000313A5009930A6000A168A156E270A1280
:1018CE008A15363083120313D5009930D60083164D
:1018DE000317370883120313D8008316031736082D
:1018EE0083120313D70083160317350883120313CD
:1018FE00DA0083160317340883120313D9008316F4
:10190E000317270883120313DC0083160317260818
:10191E0083120313DB0083160317290883120313A4
:10192E00DE0083160317280883120313DD00E73049
:10193E000A168A1513260A128A1505308312031306
:10194E00A40001300A168A1142200A128A15E730C5
:10195E0083120313A5000030A6000A168A156E27FF
:10196E000A128A1583120313871CBE2CBF2CEC2C73
:10197E000918C22CC32CC72C091DC62CC72CEC2C45
:10198E0083160317CA01CA0A0D3083120313A4006B
:10199E0002300A168A1142200A128A15403083122A
:1019AE000313A5009930A6000A168A156E270A128F
:1019BE008A155E3083120313A1009930A2000A1615
:1019CE008A15E2260A128A15D12E091DEF2CF02C4B
:1019DE00F42C0918F32CF42CFC2C091DF72CF82CE4
:1019EE00522D8918FB2CFC2C522D0D30A4000230E8
:1019FE000A168A1142200A128A1522308312031304
:101A0E00A5009930A6000A168A156E270A128A15A5
:101A1E0003308316031741022030031940020318C6
:101A2E00192D1A2DD12E5030C0070318C10A0030BF
:101A3E00C10703304102213003194002031C282D37
:101A4E00292D2D2D2030C0000330C10052308312BD
:101A5E000313D5009930D60083160317410883125D
:101A6E000313D80083160317400883120313D700FD
:101A7E00D7300A168A1513260A128A15D730831202
:101A8E000313A1000030A2000A168A15E2260A12DC
:101A9E008A15D12ED12E091C552D562D8D2D0D307A
:101AAE00A40002300A168A1142200A128A15C63084
:101ABE0083120313A5009830A6000A168A156E2706
:101ACE000A128A15523083120313D5009930D600AC
:101ADE0083160317410883120313D80083160317C6
:101AEE00400883120313D700A6300A168A15132650
:101AFE000A128A15A63083120313A1000030A20029
:101B0E000A168A15E2260A128A15D12E071D902D65
:101B1E00912DBE2D8918942D952D992D071C982D3C
:101B2E00992DBE2D83160317CA01CA0A0D308312D2
:101B3E000313A40002300A168A1142200A128A15D3
:101B4E00493083120313A5009930A6000A168A1590
:101B5E006E270A128A155E3083120313A100993084
:101B6E00A2000A168A15E2260A128A15D12E071C21
:101B7E00C12DC22DC62D8918C52DC62DCE2D071CE3
:101B8E00C92DCA2D5F2E0918CD2DCE2D5F2E0D30ED
:101B9E00A40002300A168A1142200A128A152C302D
:101BAE0083120313A5009930A6000A168A156E2714
:101BBE000A128A1583160317400983160313A00011
:101BCE0083160317410983160313A100A00A0319F4
:101BDE00A10A200883160317BE00831603132108DB
:101BEE0083160317BF003F08803AFF007C307F0248
:101BFE00031D032EE1303E02031C062E072E512D2F
:101C0E00B03083160317BE070318BF0AFF30BF0795
:101C1E003F08803AFF007C307F02031D182EE03013
:101C2E003E0203181B2E1C2E222EE03083160317A5
:101C3E00BE00FC30BF00831603173E098316031344
:101C4E00A000831603173F0983160313A100A00AF1
:101C5E000319A10A200883160317C0008316031365
:101C6E00210883160317C100523083120313D500C7
:101C7E009930D600831603173F0883120313D8003A
:101C8E00831603173E0883120313D700DF300A169C
:101C9E008A1513260A128A15DF3083120313A10048
:101CAE000030A2000A168A15E2260A128A15D12ED3
:101CBE00891C622E632EB32E0D30A40002300A163C
:101CCE008A1142200A128A15E43083120313A500EA
:101CDE009830A6000A168A156E270A128A158316E0
:101CEE000317400983160313A00083160317410937
:101CFE0083160313A100A00A0319A10A2008831654
:101D0E000317AA0083160313210883160317AB00CB
:101D1E00523083120313D5009930D6008316031761
:101D2E002B0883120313D800831603172A08831275
:101D3E000313D700BA300A168A1513260A128A150B
:101D4E00BA3083120313A1000030A2000A168A15BE
:101D5E00E2260A128A15D12E0D30A40002300A1680
:101D6E008A1142200A128A15003083120313A5002D
:101D7E009930A6000A168A156E270A128A155E3049
:101D8E0083120313A1009930A2000A168A15E226C7
:101D9E000A128A1583120313871CD62ED72EE32E12
:101DAE000918DA2EDB2EDF2E091DDE2EDF2EE32E96
:101DBE00831203130516F22E071DE62EE72EF02EC4
:101DCE008918EA2EEB2EDF2E071CEE2EEF2EF02EAC
:101DDE00DF2E0512F22E0A168A11A62F8312031376
:101DEE00871DFA2EFB2E512FA401A40A01300A16CC
:101DFE008A1142200A128A151B3083120313A50082
:101E0E009830A6000A168A156E270A128A158312B2
:101E1E000313A401A40A02300A168A1142200A12E0
:101E2E008A15003083120313A5009830A6000A16F7
:101E3E008A156E270A128A155E3083120313A100CB
:101E4E009930A2000A168A15E2260A128A15831202
:101E5E0003130516063083160313A2001330A100D8
:101E6E00AD30A000A00B392FA10B392FA20B392FAB
:101E7E00831203130512103083160313A200393098
:101E8E00A1000D30A000A00B4A2FA10B4A2FA20BD0
:101E9E004A2FDF2E081C542F552F892F5E30A1009C
:101EAE009930A2000A168A15E2260A128A158312A2
:101EBE000313A401A40A01300A168A1142200A1241
:101ECE008A154D3083120313A5009830A6000A160A
:101EDE008A156E270A128A1583120313A401A40A07
:101EEE0002300A168A1142200A128A1535308312E0
:101EFE000313A5009830A6000A168A156E270A123B
:101F0E008A152E2F831603174A03031D8F2F902F2A
:101F1E00F22E5E3083120313A1009930A2000A162E
:101F2E008A15E2260A128A1583120313A401A40A43
:101F3E0001300A168A1142200A128A156530831260
:101F4E000313A5009830A6000A168A156E270A12EA
:101F5E008A1583120313A401A40A02300A168A11E9
:101F6E0042200A128A157A3083120313A500983084
:101F7E00A6000A168A156E270A128A1583120313F3
:101F8E000516063083160313A2001330A100AD30E0
:101F9E00A000A00BD02FA10BD02FA20BD02F8312FD
:101FAE0003130512063083160313A2001330A1008B
:101FBE00AD30A000A00BE12FA10BE12FA20BE12F62
:101FCE00831203130919EC2FED2FF22E0918F02F9F
:101FDE00F12FF22E0718F42FF52FF22E8918F82F65
:101FEE00F92FF22E83160317CA01F22E0A128A1146
:021FFE000E28AB
:10200C00831203132008210403190D280E283D28E0
:10201C00A401A40A1C2801300310A00DA10DFF3E41
:10202C00031D12280130FF007F08A407A11F1F28E1
:10203C002028112821082302031D2628200822020B
:10204C00031C29282A2830282008A2022108031C56
:10205C00A303A30201300310A10CA00CFF3E031D2F
:10206C0031280130A402031D3C283D2820282308D8
:10207C00A1002208A000080083120313A600260367
:10208C00031D49284A28692824087F3EA9002908ED
:10209C00A50004300310A50CFF3E031D5028250895
:1020AC00A70029080F39A80027080A168A15BB258E
:1020BC000A168A118312031328080A168A15BB25DF
:1020CC000A168A118D2802302606031D6E286F28E9
:1020DC008D282408BF3EA9002908A5000430031050
:1020EC00A50CFF3E031D75282508A70029080F39EC
:1020FC00A80027080A168A15BB250A168A1183120E
:10210C00031328080A168A15BB250A168A1108001B
:10211C008312031322080319942895289A2822085D
:10212C00031D99289A28A12820080A128A11FD2734
:10213C000A168A11E7282208093E84008313000836
:10214C00A300840A0008A400230824040319AF2860
:10215C00B028CE282208093E84000008A300840A77
:10216C000008A4002208023E84000008A500840A8E
:10217C000008A6002608803AA7002408803A270207
:10218C00031DCA28230825020318CD28CE28E728CA
:10219C00831203132208023E840083130008A30059
:1021AC002208840000082307A400240884002008C7
:1021BC0080002208023E840001308007840A031844
:1021CC00800A080083120313AF01AD1FEE28EF281D
:1021DC00F628AC09AD09AC0A0319AD0AAF01AF0A78
:1021EC00AB1FF928FA28FF28AA09AB09AA0A031978
:1021FC00AB0A2A082B040319042905293429AE013A
:10220C00AE0A132901300310AA0DAB0DFF3E031DBE
:10221C0009290130FF007F08AE07AB1F16291729CB
:10222C0008292B082D02031D1D292A082C02031C2A
:10223C002029212927292A08AC022B08031CAD03CD
:10224C00AD0201300310AB0CAA0CFF3E031D282974
:10225C000130AE02031D3329342917292F08031925
:10226C00382939293E29AC09AD09AC0A0319AD0A44
:10227C002D08AB002C08AA00080000300A168A159D
:10228C00F3250A168A111A3083120313A500F730AE
:10229C00A400A40B4F29A50B4F29542903300A166F
:1022AC008A15BB250A168A11073083120313A50061
:1022BC007C30A400A40B6029A50B6029000003301E
:1022CC000A168A15BB250A168A110F3083120313BE
:1022DC00A5004730A400A40B7129A50B712903306C
:1022EC000A168A15BB250A168A1102300A168A1597
:1022FC00BB250A168A1102300A168A15BB250A1646
:10230C008A1108300A168A15BB250A168A11003064
:10231C000A168A15BB250A168A110C300A168A155C
:10232C00BB250A168A1100300A168A15BB250A1617
:10233C008A1106300A168A15BB250A168A1108005E
:10234C00F2007208063E8400013083178007840A6D
:10235C000318800A7208063E84000008F000840A04
:10236C000008F100003071023C3003197002031CAC
:10237C00C029C1290C2A7208063E84008001840AF7
:10238C0080017208043E840001308007840A03181F
:10239C00800A7208043E84000008F000840A0008D9
:1023AC00F100003071023C3003197002031CDF296C
:1023BC00E0290C2A7208043E84008001840A800102
:1023CC007208023E840001308007840A0318800AD8
:1023DC007208023E84000008F000840A0008F10034
:1023EC0000307102FA3003197002031CFE29FF2918
:1023FC000C2A7208023E84008001840A8001720853
:10240C00840001308007840A0318800A08008312B4
:10241C000313AF01AB1F132A142A1B2AAA09AB09F9
:10242C00AA0A0319AB0AAF01AF0AAD1F1E2A1F2A55
:10243C00282AAC09AD09AC0A0319AD0A0130FF001A
:10244C007F08AF06B001B1012A082B0403192F2A0B
:10245C00302A672AAE01AE0A3E2A01300310AA0DBB
:10246C00AB0DFF3E031D342A0130FF007F08AE0781
:10247C00AB1F412A422A332A01300310B00DB10D93
:10248C00FF3E031D432A2B082D02031D4F2A2A0849
:10249C002C02031C522A532A5A2A2A08AC022B0853
:1024AC00031CAD03AD02301401300310AB0CAA0CAD
:1024BC00FF3E031D5B2A0130AE02031D662A672A0C
:1024CC00422A2F0803196B2A6C2A712AB009B10908
:1024DC00B00A0319B10A3108AB003008AA00080091
:1024EC0083120313AD00AB01AC012D0884008313E0
:1024FC000008A800840A0008A9002908FF00280881
:10250C0084000A168A156B210A168A112A3A031DB1
:10251C00902A912AC62A2D08840001308313800743
:10252C00840A0318800A260884000008FF00023081
:10253C0080077F0884000008AB00840A0008AC0008
:10254C00DF2A2C08A1002B08A0000A30A2000030C2
:10255C00A3000A168A1559260A168A118312031328
:10256C002A082007AB000030031801302107AC000B
:10257C002D088400013083138007840A0318800A15
:10258C002D08840083130008A800840A0008A90001
:10259C002908FF00280884000A168A156B210A16E0
:1025AC008A11D03EAA000A302A02031CDE2ADF2A36
:1025BC00A72A2C08A7002B08A600080003108312DA
:1025CC000313220D230DA9002908031DEE2AEF2A5F
:1025DC00F82A0030A3000030A2000030A100003027
:1025EC00A0005B2B2008A4002108A5002208A6004F
:1025FC002308A7001F300310A70CA60CA50CA40CD5
:10260C00FF3E031D012B2408A800A217FF30A005D4
:10261C00FF30A105FF30A2050030A3059630A902BA
:10262C00A91F192B1A2B342B2908803A973E031813
:10263C00202B212B222BEF2A01300310A30CA20CF0
:10264C00A10CA00CFF3E031D232B0130FF007F08C3
:10265C00A907031D322B332B222B4B2B20302902A5
:10266C00031C392B3A2B462BEF2A0130A400031004
:10267C00A00DA10DA20DA30DA40B3D2B0130A902A1
:10268C002908031D4A2B4B2B3B2B280803194F2BD6
:10269C00502B5B2BA009A109A209A309A00A0319BD
:1026AC00A10A0319A20A0319A30A0800831203132F
:1026BC00B800B901B90A6E08BB006D08BA001F302A
:1026CC00BC000030BD0083120317AF01A32BFF30F9
:1026DC00BC070318BD0AFF30BD073C08103E840040
:1026EC000A30A0000030A1003708A3003608A20071
:1026FC000A168A1106200A168A118312031320085F
:10270C00303E83178000B901FF30BA070318BB0AAB
:10271C00FF30BB070A30A0000030A1003708A3002F
:10272C003608A2000A168A1528270A168A1183125F
:10273C0003132108B7002008B60003133C083D041E
:10274C000319A92BAA2BC82B36083704031DAF2B52
:10275C00B02B6D2B3908031DB42BB52B6D2B3B08FF
:10276C00803AFF0080307F02031DBE2B01303A02FD
:10277C00031CC12BC22BC82B83120313EF18C72BBE
:10278C00C82B6D2B831203133C08103EAF003B0883
:10279C00B1003A08B00038080A168A15B4270A1690
:1027AC008A11080083120313A80028080319DF2BD1
:1027BC00E02BF42BA31FE32BE42BF42B2009AA0012
:1027CC002109AB002209AC002309AD00AA0A0319A8
:1027DC00AB0A0319AC0A0319AD0AFC2B2308AD0094
:1027EC002208AC002108AB002008AA002308220410
:1027FC0021042004031D032C042C0D2C0030A300F9
:10280C000030A2000030A1000030A000912C9630C6
:10281C00A9001D2C0130FF007F08A907013003100F
:10282C00AD0CAC0CAB0CAA0CFF3E031D152CFE30F2
:10283C002D05031D222C232C102C3F2C0130FF00C6
:10284C007F08A9070130AA07003003180130AB0735
:10285C00003003180130AC07003003180130AD070D
:10286C0001300310AD0CAC0CAB0CAA0CFF3E031DDD
:10287C00372CFF302D05031D442C452C242C512CBA
:10288C000130A9020130A4000310AA0DAB0DAC0D50
:10289C00AD0DA40B4A2CAC1B542C552C5B2C0230CC
:1028AC00290203185A2C5B2C462C29185E2C5F2C01
:1028BC00672CFF30AA05FF30AB057F30AC05FF302D
:1028CC00AD050310A90C2908A400A501A601A701B8
:1028DC0018300310A40DA50DA60DA70DFF3E031D6A
:1028EC006F2C2408AA042508AB042608AC0427087E
:1028FC00AD0428080319832C842C892CA31F872C46
:10290C00882C892CAD172D08A3002C08A2002B08AD
:10291C00A1002A08A000080083120313BA00BB010F
:10292C00BB0AB71B9A2C9C2C01309D2C0030BE008E
:10293C006E08BD006D08BC003E080319A62CA72C20
:10294C00BD2CFF30BC070318BD0AFF30BD073E0885
:10295C00031DB12CB22CB72C2B30B8000030B900B1
:10296C00BB2C2D30B8000030B9003808BE001F3029
:10297C00BF000030C00083120317AF01062DFF30DB
:10298C00BF070318C00AFF30C0073F08103E840081
:10299C000A30AA000030AB003708AD003608AC0096
:1029AC000A168A11E8200A168A11831203132B08BF
:1029BC00B1002A08B0000A168A157D250A168A115C
:1029CC00831203133008303E83178000BB01FF30A5
:1029DC00BC070318BD0AFF30BD070A30AA0000303F
:1029EC00AB003708AD003608AC000A168A110D2270
:1029FC000A168A11831203132B08B7002A08B60093
:102A0C0003134008803AFF0080307F02031D102D15
:102A1C0001303F02031C132D142D342D831203138C
:102A2C0036083704031D1B2D1C2DC52C3B08031D1C
:102A3C00202D212DC52C3D08803AFF0080307F02CF
:102A4C00031D2A2D01303C02031C2D2D2E2D342D5F
:102A5C0083120313EF18332D342DC52C831203135B
:102A6C003E0803193A2D3B2D472DFF30BF070318A5
:102A7C00C00AFF30C0073F08103E84003E08831791
:102A8C0080003F08103EAF003D08B1003C08B0008C
:102A9C003A080A168A15B4270A168A1108008312F6
:102AAC000313CC004108840083130008C300840A7C
:102ABC000008C4004408FF00430884000A168A1565
:102ACC006B210A168A11253A031D6D2D6E2D742E5D
:102ADC0041088400013083138007840A0318800A9C
:102AEC00ED01EE010310003003180130EF00FF3050
:102AFC0083160317C400FF30C50083120313C701EC
:102B0C00B12DEF1441088400013083138007840A2F
:102B1C000318800AB12DC701C70AB12D41088400E2
:102B2C0083130008C300840A0008C4004408FF0093
:102B3C00430884000A168A156B210A168A11C500EF
:102B4C00C6014608003A0319AC2D912D4508303AC0
:102B5C000319872D912D47080319B52DB62D942DEA
:102B6C004208A60041080A168A1176220A168A1112
:102B7C00831203132708EE002608ED00EE1FC72D65
:102B8C00C82DCE2D6F14ED09EE09ED0A0319EE0ACE
:102B9C004108840083130008CD00840A00088403D4
:102BAC00CE004E08FF004D0884000A168A156B21D2
:102BBC000A168A11643A0319E42DE52DF32D4E08FB
:102BCC00FF004D0884000A168A156B210A168A111B
:102BDC00693A031DF22DF32D1C2E42088400831339
:102BEC000008FF00023080077F0884000008C8003E
:102BFC00840A0008C9004D08013EC3004E080318A2
:102C0C00013E003EC4004108840043088000440893
:102C1C00840A800084034908B7004808B6004C08B1
:102C2C000A168A1192240A168A11932E4E08FF0056
:102C3C004D0884000A168A156B210A168A11753AFA
:102C4C00031D292E2A2E692E4208840083130008A6
:102C5C00FF00023080077F0884000008C800840A47
:102C6C000008C9004D08013EC3004E080318013E80
:102C7C00003EC40041088400430880004408840AD4
:102C8C0080008403542E4908B7004808B6004C084D
:102C9C000A168A115C230A168A11932E4E08FF001D
:102CAC004D0884000A168A156B210A168A11C30076
:102CBC00C4014408003A0319642E692E4308753A7E
:102CCC000319492E692E8312031341088400013025
:102CDC0083138007840A0318800A932E410884000A
:102CEC0083130008C300840A0008C4004408FF00D2
:102CFC00430884000A168A156B210A168A11C5002E
:102D0C00C6014508A0004608A1004C08A2000A16FE
:102D1C008A118E200A168A11692E08008316031355
:102D2C00860105120914891487140715091507144F
:102D3C00871508148514051585150A168A11432163
:102D4C000A168A11831603130713871705108512A9
:102D5C000712871201308800023083160313A20079
:102D6C000430A100B930A000A00BBA2EA10BBA2ED2
:102D7C00A20BBA2EC12E8312031305120130A6002A
:102D8C000030A7000A168A1590250A168A1183129C
:102D9C000313270883160317CE0083120313260888
:102DAC0083160317CD00023083120313A6000030E4
:102DBC00A7000A168A1590250A168A118312031386
:102DCC00270883160317D0008312031326088316D3
:102DDC000317CF00033083120313A6000030A700A3
:102DEC000A168A1590250A168A11831203132708CE
:102DFC0083160317D20083120313260883160317B6
:102E0C00D100043083120313A6000030A7000A1669
:102E1C008A1590250A168A11831203132708831624
:102E2C000317CC0083120313260883160317CB0059
:102E3C0083160313811281110115811401148B1750
:102E4C000B178B160A168A1541250A168A1183123E
:102E5C000313A401A40A01300A168A1142200A168F
:102E6C008A11B63083120313A5009830A6000A16F7
:102E7C008A156E270A168A1183120313A401A40A59
:102E8C0002300A168A1142200A168A11D530831292
:102E9C000313A5009830A6000A168A156E270A1689
:102EAC008A11113083120313A40002300A168A11FE
:102EBC0042200A168A11683083120313A500993038
:102ECC00A6000A168A156E270A168A110630831672
:102EDC000313A2001330A100AD30A000A00B742F7F
:102EEC00A10B742FA20B742F0A168A1541250A16F2
:102EFC008A110C308316031399000A168A155C2567
:102F0C000A168A1183160317C001C1018316031315
:102F1C009F171F08F03904389F00831203131F08F2
:102F2C003F3980389F001F148710091109100711B1
:102F3C0007108910013083160317AE000030AF0064
:102F4C0083160317BC01BD01831603173D088312BA
:102F5C000313A700831603173C0883120313A60060
:102F6C000A168A1590250A168A118312031327084C
:102F7C0083160317A3008312031326088316031763
:102F8C00A200220A2304031DCC2FCD2FDF2F3D08D6
:102F9C0083120313A100831603173C088312031337
:102FAC00A0000030A200A3000A168A15D7250A1625
:102FBC008A11013083160317BC070318BD0A0030B1
:102FCC00BD073D08803AFF0080307F02031DF02FC3
:102FDC00FF303C02031CF32FF42FAA2F8316031788
:102FEC002E082F040319FD2F0A128A1135280A12F4
:102FFC008A11852820342034203449344C3445340B
:10300C0052344C3445344D344534203448344134F6
:10301C005434413453344934203420342034203453
:10302C002034203420342034003420342034203414
:10303C0046344534453444342034523441345434C9
:10304C00453420344534523452344F3452342034C5
:10305C0020342034203420342034203400342034E4
:10306C002034203444344F344E344D3445342034E1
:10307C0048344134543441345334493420342034AA
:10308C0020342034203420342034203400342034B4
:10309C002034203452344F34543441345434493471
:1030AC004F344E3420344534523452344F3452342D
:1030BC002034203420342034203420340034533451
:1030CC0054344F3450342034443455345234553401
:1030DC004D3455344E344134203447344534543413
:1030EC004934523420340034503455345434203460
:1030FC0049345434203449344E3420345334543409
:10310C004F345034203453345434413454344534D3
:10311C000034533454344F34503420344434553404
:10312C00523455344D3455344E34413420344734B4
:10313C0045345434493452340034593441344734CE
:10314C002034423441344B3449344D3449342034E6
:10315C0059344134503449344E3449345A3400349F
:10316C0055345A344D3441344E344C344134523449
:10317C0020344D3441344B3449344E3441340034D2
:10318C002034463457344434203420342034203412
:10319C00203420342034203420342034003477344C
:1031AC00773477342E3462346F3472347634653439
:1031BC006B342E3463346F346D3400342034523419
:1031CC0045345734203420342034203420342034F7
:1031DC0020342034203400344F3449344C342034DF
:1031EC005434483445342034473445344134523413
:1031FC00533400342034533454344F34503420344A
:10320C00203420342034203420342034003425342D
:10321C0035347534683420342534303432347534D4
:10322C006D3400344634653465346434523461345E
:10323C00743465343A3400342034463457344434CE
:10324C00203431342E3436344B3400342034523460
:10325C0045345734203431342E3436344B34003426
:10326C002534753425347534253475342E34253491
:10327C0075340034203446345734443420344C34C0
:10328C004D345434003420345234453457342034C3
:10329C004C344D34543400347334253464340D348C
:1032AC000A3400342534303430343334753400343B
:1032BC00733430340D340A340034523450344D34B9
:1032CC003A340034563433340034FF1B75298313DD
:1032DC007F1883170008840A0319FF0A08007F0867
:0E32EC007F398A000408840A0319FF0A820051
:103A720064008001840A04060319003404063A2D06
:103A820000300A168A15BB250A168A1501300A1655
:103A92008A15BB250A168A15080083120313A00093
:103AA20083160313981C562D572D512D8312031381
:103AB20020089900080024308316031398009030E0
:103AC2008312031398000C30831603139900831298
:103AD2000313990108007008831203178D008316DF
:103AE20003170C14831203170C08F200F301720877
:103AF200F0007308F100080083120313B11B822D3A
:103B0200832D842D8F2D3009B2003109B300B20A02
:103B12000319B30A3208B0003308B1000800831257
:103B220003132608831203178D00831603170C1440
:103B3200831203170C0883120313A800A901280893
:103B4200A6002908A70008007008831203178D0039
:103B520072088C00831603170C158B1355308D00D9
:103B6200AA308D008C148B170C118C18B92DBA2D1C
:103B7200B62D080083120313A300861223080A1627
:103B82008A15F3250A168A158312031306160630C0
:103B920083120313A2002F30A100A10BCE2DA20B82
:103BA200CE2DD32D831203130612080083120313A2
:103BB2002008831203178D00831203132208831235
:103BC20003178C00831603170C158B1355308D00C9
:103BD200AA308D008C148B170C118C18F12DF22D3C
:103BE200EE2D080083120313A000201CF92DFA2DDC
:103BF200FC2D8615FD2D8611A01C002E012E032EF4
:103C02000615042E0611201D072E082E0A2E8614D4
:103C12000B2E8610A01D0E2E0F2E112E0614122E04
:103C22000610080083120313E1005730E000610818
:103C3200E200E401E501EB01EC015508CF00560872
:103C4200D0006030D10062300A168A1534260A1676
:103C52008A158312031364086107DF005F0884007A
:103C620083138001080083120313D2004F08D3008C
:103C72005008D400462E5330C1005108C2005208E9
:103C82000A168A1155250A168A1583120313540837
:103C9200FF00530884000A168A156B210A168A153A
:103CA200003A031D552E562E3C2ECF01D00108009E
:103CB20083120313A401A501201C602E612E672E1E
:103CC2002208A4070318A50A2308A5070130031038
:103CD200A20DA30DFF3E031D682E01300310A10C9F
:103CE200A00CFF3E031D6F2E20082104031D7A2E17
:103CF2007B2E5D2E2508A1002408A0000800831257
:103D02000313A800A401A5012008A200A301220810
:103D1200A6002308A700281C8F2E902E962E260878
:103D2200A4070318A50A2708A50701300310A60D4A
:103D3200A70DFF3E031D972E0310A80C2808031D94
:103D4200A32EA42E8C2E2508A1002408A000080072
:103D520083120313A40024080F39A2002408F039A7
:103D6200A30086162308A10004300310A10CFF3E15
:103D7200031DB62E21080A168A15F3250A168A157E
:103D82008312031306160C3083120313A100A10B36
:103D9200C82E000083120313061222080A168A157F
:103DA200F3250A168A158312031306160C308312A2
:103DB2000313A100A10BDB2E0000831203130612D2
:103DC200080083120313A601A7010B2F260821075F
:103DD200A4002208A3000318A30AA61FF12EA3031E
:103DE200831203132308A5002508FF00240884007A
:103DF2000A168A156B210A168A150A168A154E2585
:103E02000A168A15013083120313A6070318A70A9C
:103E12000030A70726082107A4002208A3000318E0
:103E2200A30AA61F152FA303831203132308A500B9
:103E32002508FF00240884000A168A156B210A1639
:103E42008A15003A031D262F272FE72E080083121A
:103E52000313A401A501200821040319312F322FD5
:103E6200692FA601A60A402F01300310A00DA10D53
:103E7200FF3E031D362F0130FF007F08A607A11F5A
:103E8200432F442F352F01300310A40DA50DFF3E03
:103E9200031D452F21082302031D512F2008220252
:103EA200031C542F552F5C2F2008A2022108031C4B
:103EB200A303A302241401300310A10CA00CFF3EA3
:103EC200031D5D2F0130A602031D682F692F442FA9
:103ED2002508A1002408A000080083120313AA01E8
:103EE200AB01972F2A082507A8002608A700031868
:103EF200A70AAA1F7D2FA703831203132708A9006D
:103F02002908FF00280884000A168A156B210A1660
:103F12008A150A168A15A9260A168A1501308312ED
:103F22000313AA070318AB0A0030AB072A082507B8
:103F3200A8002608A7000318A70AAA1FA12FA703F3
:103F4200831203132708A9002908FF002808840008
:103F52000A168A156B210A168A15003A031DB22F1A
:103F6200B32F732F080083120313B5006F1CBA2FEF
:103F7200BB2FC32F3508A8002F080A128A15072065
:103F82000A168A1583120313B11FC82FC92FCB2F0C
:103F9200B001B101B301B401E32F20308312031346
:103FA200A0000030A1003508A2000A168A118E2056
:103FB2000A168A15013083120313B3070318B40AD1
:103FC2000030B4073408803AB2003108803A320235
:103FD200031DED2F30083302031CF02FF12FCE2FDB
:103FE200831203136F18F62FF72FFF2F3508A8003F
:0E3FF2002F080A128A1507200A168A150800E1
:02400E00793FF8
:00000001FF
