:100000000A128A11FC2F00300A168A155C230A1284
:100010008A111A30F500F830F400F40B0D28F50BB6
:100020000D28000003300A168A1574230A128A115B
:100030000730F5007D30F400F40B1C28F50B1C286C
:1000400003300A168A1574230A128A110F30F5003C
:100050004730F400F40B2A28F50B2A282F28033008
:100060000A168A1574230A128A1102300A168A1592
:1000700074230A128A1102300A168A1574230A128E
:100080008A1108300A168A1574230A128A11003060
:100090000A168A1574230A128A110C300A168A1558
:1000A00074230A128A1100300A168A1574230A1260
:1000B0008A1106300A168A15742308008316BC00BC
:1000C0006A30A900831269088316A10083126808A8
:1000D0008316A0008312E80A0319E90A831621088F
:1000E0008312FF0083162008840083120A168A15E3
:1000F00000200A128A118316BF003F080319F72F48
:1001000025303F0603198E283C0884003F088317DA
:1001100080000130FF007F08BC076228AC01AD0100
:10012000AA01AB0183126908FF00680884000A165F
:100130008A1500200A128A110A168A154E230A12FD
:100140008A11031CE6288316AC01AD010A30F000C9
:100150000030F10083162D08F3002C08F2000A1677
:100160008A15C9230A128A117108AD007008AC0003
:1001700083126908FF00680884000A168A150020A7
:100180000A128A11D03E8316A000FF3003180030F7
:10019000A1002008AC070318AD0A2108AD07013003
:1001A0008312E8070318E90A0030E9076908FF002D
:1001B000680884000A168A1500200A128A110A1695
:1001C0008A154E230A128A110318A6286908FF000F
:1001D000680884000A168A1500200A128A112E3A2D
:1001E000031D402983162B1701308312E8070318DB
:1001F000E90A0030E9078316BD01BE0183126908D0
:10020000FF00680884000A168A1500200A128A1165
:100210000A168A154E230A128A11031C49290A302C
:10022000F0000030F10083163E08F3003D08F200B4
:100230000A168A15C9230A128A117108BE007008AD
:10024000BD0083126908FF00680884000A168A1539
:1002500000200A128A11D03E8316A000FF30031836
:100260000030A1002008BD070318BE0A2108BE0700
:1002700001308312E8070318E90A0030E907FE2875
:100280008316BD01BE012B1649292B157C292A177F
:100290007C29831269088316A100831268088316DB
:1002A000A0008312E80A0319E90A831621088312C1
:1002B000FF0083162008840083120A168A15002086
:1002C0000A128A118316BF00A200A3012308003A74
:1002D00003196B2962282208003A0319F72F643AA0
:1002E00003197C29023A031945290F3A03197C297D
:1002F0001C3A03194729622800302A05A00007305C
:100300002B05A100200821040319742E2B1E8C2913
:100310000630BD000030BE002908840083130008A9
:10032000B800840A0008B900840A0008BA00840AE8
:100330000008BB000430FF007F08A9073B08F3005A
:100340003A08F2003908F1003808F0000030F700F0
:100350000030F6000030F5000030F4000A168A156F
:10036000CC260A128A110318CE293B08F3003A085A
:10037000F2003908F1003808F0000A128A1500204E
:100380000A128A117308BB007208BA007108B9001A
:100390007008B8000330AA040030AB04B601B701FE
:1003A0003B08F3003A08F2003908F1003808F00081
:1003B0000030F7000030F6000030F5000030F400A7
:1003C0000A168A15CF240A128A110318A42A0310C8
:1003D0003A0D3B0D823EB600FF3003180030B700E7
:1003E000FF30B6070318B70AFF30B7070330F00035
:1003F0000030F1003708F3003608F2000A168A15BB
:10040000C9230A128A117108B7007008B6000A30B1
:10041000F6000030F7003708F9003608F8000A1631
:100420008A15AE250A128A1177088316B700760856
:10043000B600B71F212AFF30B6070318B70AFF30EE
:10044000B7073603FF3A0A128A159C240A128A114A
:100450003D088316B10083123C088316B000831256
:100460003B088316AF0083123A088316AE003B08A0
:100470008312A30083163A088312A2008316390858
:100480008312A100831638088312A0008316310856
:100490008312A700831630088312A60083162F0844
:1004A0008312A50083162E088312A4000A128A154F
:1004B000C3210A128A1123088316B100831222086D
:1004C0008316B000831221088316AF008312200820
:1004D0008316AE003108F3003008F2002F08F10057
:1004E0002E08F0003F30F7008030F6000030F500B5
:1004F0000030F4000A168A15CC260A128A11031855
:10050000872AFF30B6070318B70AFF30A32A31083D
:10051000F3003008F2002F08F1002E08F0004130FF
:10052000F7002030F6000030F5000030F4000A1625
:100530008A15CC260A128A11031CA42A0130B60798
:100540000318B70A0030B7073E08803AFF00803032
:100550007F02031DAD2A0D303D020318E32A8316E6
:1005600003133D080A168A116E210A128A113D08EA
:10057000CF003C08CE003B08CD003A08CC008316E3
:100580003B088312D30083163A088312D2008316E5
:1005900039088312D100831638088312D0000A1656
:1005A0008A113D230A128A114F088316BB00831259
:1005B0004E088316BA0083124D088316B9008312C1
:1005C0004C088316B800831603133708803AFF00DF
:1005D00080307F02031DEE2A0A30360203182F2BCB
:1005E000831603133B08F3003A08F2003908F100C0
:1005F0003808F0000030F7000030F6000030F50059
:100600000030F4000A168A15CF240A128A11031842
:100610008C2B3B088312D00083163A088312CF003C
:10062000831639088312CE00831638088312CD0052
:100630000A168A1565260A128A1150084F044E04BC
:100640004D04031D8C2B83163708803AFF00803041
:100650007F02031D2D2B02303602031C8C2B8316C8
:1006600003133108F3003008F2002F08F1002E08C0
:10067000F0004030F7008930F6007030F5005F3050
:10068000F4000A168A15CC260A128A1103184A2B7E
:10069000F7304B2BF830B6070318B70AFF30B7070F
:1006A00036080A128A159C240A128A113D088316FC
:1006B000B10083123C088316B00083123B088316F6
:1006C000AF0083123A088316AE003B08F3003A08E5
:1006D000F2003908F1003808F0003108F70030085E
:1006E000F6002F08F5002E08F4000A168A112820BB
:1006F0000A128A1173088316B5007208B4007108D3
:10070000B3007008B2000030BB000030BA00003007
:10071000B9000030B800EF2B831603133B08831297
:10072000D00083163A088312CF008316390883124B
:10073000CE00831638088312CD000A168A15652666
:100740000A128A1150088316B50083124F088316C7
:10075000B40083124E088316B30083124D0883162B
:10076000B2003508F3003408F2003308F100320813
:10077000F00000300A168A155F270A128A117308E2
:1007800083120313E3007208E2007108E1007008AD
:10079000E00083163B088312E70083163A088312B1
:1007A000E600831639088312E500831638088312A1
:1007B000E4000A168A158C230A128A11630883162C
:1007C000BB00831262088316BA0083126108831685
:1007D000B900831260088316B800B601B701BF01E3
:1007E000BF0A3F08A00001300310A00DFF3E031D0B
:1007F000F42B0310200D7A3E840098300318013E3C
:100800008312FF000A168A1500200A128A11831625
:10081000A10083120A168A1500200A128A11831673
:10082000A20083120A168A1500200A128A11831662
:10083000A30083120A168A1500200A128A11831651
:10084000A40024083502031D2F2C23083402031DA5
:100850002F2C22083302031D2F2C21083202031CE7
:10086000392C0130FF007F08BF070A303F06031D07
:10087000F12B3F083D07A0003E0803183E0AA100E7
:1008800036082007A20037080318370A2107A300FB
:100890002208AC022308031CAD03AD023D083E0450
:1008A0000319582CFF30AC070318AD0AFF30AD0711
:1008B0002A080339031D722C2D08803AFF0080306E
:1008C0007F02031D652C01302C02031C792C83163A
:1008D00003133C0884002030831780000130FF00A0
:1008E0007F08BC07FF30AC070318AD0AFF30AD0727
:1008F0005C2C831603132A0803390319882C3C083F
:1009000084002D30831780000130FF007F08BC0772
:100910000130BF023F0A03190F2D3F08A00001302C
:100920000310A00DFF3E031D902C0310200D7A3EF6
:10093000840098300318013E8312FF000A168A15BE
:1009400000200A128A11F0000A168A1500200A12E5
:100950008A11F1000A168A1500200A128A11F20083
:100960000A168A1500200A128A11F3008316350828
:10097000F7003408F6003308F5003208F4000A16D0
:100980008A1507260A128A117308B1007208B0008E
:100990007108AF007008AE0000308312A300003071
:1009A000A2000030A1000A30A00083163108831293
:1009B000A700831630088312A60083162F0883121F
:1009C000A50083162E088312A4000A168A15622534
:1009D0000A128A1123088316B10083122208831693
:1009E000B000831221088316AF00831220088316FB
:1009F000AE003C0884002E08303E822C8316031380
:100A00003C0884003030831780000130FF007F08ED
:100A1000BC07FF30B6070318B70AFF30B70737081F
:100A2000803AFF0080307F02031D182D013036020E
:100A30000318FE2C831603133E08803AFF00803013
:100A40007F02031D252D09303D02031C2B2D08308C
:100A5000831603132E2D831603133D08BF003F0892
:100A6000A000A1012008BD022108031CBE03BE0294
:100A70003F080319442D3C0884002E308317800062
:100A80000130FF007F08BC073F080A128A159C242A
:100A90000A128A113D088316A80083123C088316A7
:100AA000A70083123B088316A60083123A08831618
:100AB000A50028088312A700831627088312A60022
:100AC000831626088312A500831625088312A40026
:100AD00083163B088312A30083163A088312A200F0
:100AE000831639088312A100831638088312A000E8
:100AF0000A128A15C3210A128A112308D00022087B
:100B0000CF002108CE002008CD000A168A156526E0
:100B10000A128A1150088316B50083124F088316F3
:100B2000B40083124E088316B30083124D08831657
:100B3000B2000130BF023F0A03196F2E3F08A00028
:100B400001300310A00DFF3E031DA12D0310200D49
:100B50007A3E840098300318013E8312FF000A1683
:100B60008A1500200A128A11F0000A168A15002040
:100B70000A128A11F1000A168A1500200A128A1137
:100B8000F2000A168A1500200A128A11F300831651
:100B90003508F7003408F6003308F5003208F40091
:100BA0000A168A1507260A128A117308B1007208FC
:100BB000B0007108AF007008AE0000308312A300CF
:100BC0000030A2000030A1000A30A00083163108D6
:100BD0008312A700831630088312A60083162F08FD
:100BE0008312A50083162E088312A4000A168A1504
:100BF00062250A128A1123088316B1008312220883
:100C00008316B000831221088316AF0083122008D8
:100C10008316AE003C0884002E08303E8317800007
:100C20000130FF007F08BC073F08A000013003101F
:100C3000A00DFF3E031D172E0310200D7A3E8400E9
:100C400098300318013E8312FF000A168A1500200F
:100C50000A128A11A0000A168A1500200A128A11A7
:100C6000A1000A168A1500200A128A11A2000A168B
:100C70008A1500200A128A11A300831635088312F0
:100C8000A700831634088312A60083163308831244
:100C9000A500831632088312A4000A168A1562255D
:100CA0000A128A1123088316B500831222088316BC
:100CB000B400831221088316B30083122008972DF5
:100CC0003C0884003030831780000130FF007F082B
:100CD000BC07FF30BD070318BE0AFF30BE073D0842
:100CE0003E0403196228602E2A1B9D2E29088400C9
:100CF00083130008A000840A0008A1002008B200A5
:100D00002108B3000030B31BFF30B400B50002303F
:100D1000FF007F08A907B51FAF2E0330AA040030DB
:100D2000AB04B209B309B409B509B20A0319B30A8D
:100D30000319B40A0319B50AAF2E290884008313D6
:100D40000008A000840A0008A1002008B2002108C1
:100D5000B300B401B5010230FF007F08A9073D08C8
:100D60003E04031DBF2E3508340433043204031D32
:100D7000BF2E0130BD070318BE0A0030BE07BF01F9
:100D8000BF0A3F08A00001300310A00DFF3E031D65
:100D9000C42E0310200D7A3E840098300318013EC3
:100DA0008312FF000A168A1500200A128A11831680
:100DB000A10083120A168A1500200A128A118316CE
:100DC000A20083120A168A1500200A128A118316BD
:100DD000A30083120A168A1500200A128A118316AC
:100DE000A40024083502031DFF2E23083402031D2E
:100DF000FF2E22083302031DFF2E21083202031C9E
:100E0000092F0130FF007F08BF070A303F06031D8E
:100E1000C12E3E08803A803C031D102F3D083F0242
:100E20000318172F831603133D08BF002D2F8316B9
:100E300003133E08803AA00080302002031D222FB9
:100E40003F083D0203182D2F831603133F08A0000F
:100E5000A1012008BD002108BE00831603132C0841
:100E60002D0403193D2F2A08033903193D2FFF30A4
:100E7000AC070318AD0AFF30AD072B1F582F3E08F3
:100E8000803AA0002D08803A2002031D492F2C082B
:100E90003D020318542F831603133D08AC023E088D
:100EA000031CAD03AD02582F83160313AC01AD0133
:100EB0002D08803A803C031D5F2F2C083F02031849
:100EC0006D2F831603133F08A000A1012008AC0278
:100ED0002108031CAD03AD02712F83160313AC016F
:100EE000AD012C082D040319882F3C088400203004
:100EF000831780000130FF007F08BC07FF30AC077C
:100F00000318AD0AFF30AD072C082D04031D752F03
:100F10002A0803390319952F3C0884002D308317C4
:100F200080000130FF007F08BC07FF30BD070318B9
:100F3000BE0AFF30BE073D0A03193E0A03196228A4
:100F400000308312A3000030A2000030A1000A305C
:100F5000A00083163D08A00001300310A00DFF3E45
:100F6000031DAD2F0310200D7A3E84009830031826
:100F7000013E8312FF000A168A1500200A128A1108
:100F8000F0000A168A1500200A128A11F1000A16CA
:100F90008A1500200A128A11F2000A168A1500200A
:100FA0000A128A11F30083163508F7003408F60098
:100FB0003308F5003208F4000A168A1507260A12CB
:100FC0008A1173088312A7007208A6007108A50091
:100FD0007008A4000A168A1562250A128A112008D0
:100FE000303E8316BF003C0884003F088F2F3C082A
:100FF000840083178001080083010A168A113A2DA4
:101000007308720471047004031908008030F30639
:101010000800F800F401F5017008F200F30172080D
:10102000F6007308F700781C1B287608F4070318ED
:10103000F50A7708F50701300310F60DF70DFF3EAE
:10104000031D1C280310F80C7808031D13287508CD
:10105000F1007408F000080027088039B100270863
:10106000A8002807B800A61B38143808031946281A
:10107000380A031D43280030A7000030A6000030C6
:10108000A5000030A400A617A7014E280030A70035
:101090000030A6000030A5000030A40023088039ED
:1010A000FF007F08B1062308A8002807B900A21B8B
:1010B0003914390803196A28390A031D67280030D2
:1010C000A3000030A2000030A1000030A000A21751
:1010D000A30172280030A3000030A2000030A1005C
:1010E0000030A0002308220421042004031D9128BD
:1010F0000030A7000030A6000030A5000030A4009A
:101100008030A6047F30A7043108FF007F08A704C1
:101110002708A3002608A2002508A1002408A00093
:1011200008003808031D9D280030A3000030A200ED
:101130000030A1000030A00008003808A800A90174
:101140002908AB0039082802AA00031CAB032A08AF
:101150007F3EB2002B080318013E003EB300270873
:10116000B0002608AF002508AE002408AD0000300E
:10117000A7000030A6000030A5000030A400003019
:10118000B7000030B6000030B5000030B400B9013F
:101190001A3039020318102939080319EC280130D4
:1011A000A8000310AD0DAE0DAF0DB00DA80BD128EA
:1011B0000130A8000310A40DA50DA60DA70DA80BC6
:1011C000DA28B71B24140130A8000310B40DB50DA4
:1011D000B60DB70DA80BE52823083002031DFA2829
:1011E00022082F02031DFA2821082E02031DFA28C7
:1011F00020082D02031C0B2937172008AD022108F7
:10120000031C210FAE022208031C220FAF02230889
:10121000031C230FB0020130FF007F08B907C82864
:1012200030082F042E042D04031D3414A61B33296B
:101230000130A8000310A40DA50DA60DA70DA80B45
:101240001A29B71B24140130A8000310B40DB50DE2
:10125000B60DB70DA80B2529FF30B2070318B30A46
:10126000FF30B3071629B901B71F4C29FF303405E9
:10127000A800FF303505A900FF303605AA007F30F1
:101280003705AB002B082A04290428040319241865
:101290004A294C29B901B90A390803197E290130B4
:1012A000A407003003180130A507003003180130EF
:1012B000A607003003180130A707271C7E29240841
:1012C000A8002508A9002608AA002708AB000130BD
:1012D000AC002B0DAB0CAA0CA90CA80CAC0B69290B
:1012E0002B08A7002A08A6002908A5002808A400A2
:1012F0000130B2070318B30A0030B3073308803A4D
:10130000FF0080307F02031D8729FF303202031C5B
:101310009729FF3083120313B2000030B30000306E
:10132000A7000030A6000030A5000030A400831202
:1013300003133308803AFF0080307F02031DA22987
:10134000013032020318B12983120313B201B30131
:101350000030A7000030A6000030A5000030A40037
:10136000B101831203133208B800381CB929A6173B
:10137000BD297F30FF007F08A6053808A8000310AC
:10138000280CA700842823088039AD002308A80072
:101390002807B300A21B331433080319DC29330ACE
:1013A000031DDA290030A3000030A2000030A100A4
:1013B0000030A000A217E4290030A3000030A200F2
:1013C0000030A1000030A00027088039FF007F080E
:1013D000AD062708A8002807AE00A61B2E142E086D
:1013E0000319FF292E0A031DFD290030A700003034
:1013F000A6000030A5000030A400A617072A003080
:10140000A7000030A6000030A5000030A4002E0880
:10141000031D3308031D152A0030A3000030A2006D
:101420000030A1000030A00008002008F0002608CD
:101430000A128A1509200A128A157108B900700863
:10144000B8003808A800A901AA01AB012B08B20016
:101450002A08B1002908B0002808AF003908A80000
:10146000A901AA01AB012B08B7002A08B600290878
:10147000B5002808B4002108F00025080A128A15D2
:1014800009200A128A157108B9007008B8003808D6
:10149000A800A901AA01AB012808AF072908031178
:1014A0000318013E031DB0072A0803110318013E6B
:1014B000031DB1072B0803110318013E031DB207DA
:1014C0003908A800A901AA01AB012808B407290816
:1014D00003110318013E031DB5072A080311031861
:1014E000013E031DB6072B0803110318013E031D1F
:1014F000B7072208F00024080A128A1509200A12E8
:101500008A157108B9007008B8003808A800A90148
:10151000AA01AB012808AF07290803110318013EEF
:10152000031DB0072A0803110318013E031DB1076C
:101530002B0803110318013E031DB2073908A80048
:10154000A901AA01AB012808B4072908031103184F
:10155000013E031DB5072A0803110318013E031DB0
:10156000B6072B0803110318013E031DB707083007
:10157000A8000310AF0DB00DB10DB20DA80BB92A24
:101580002108F00024080A128A1509200A128A1577
:101590007108B9007008B8003808A8003908A90017
:1015A000AA01AB012808AF07290803110318013E5F
:1015B000031DB0072A0803110318013E031DB107DC
:1015C0002B0803110318013E031DB2072008F00089
:1015D00025080A128A1509200A128A157108B9000D
:1015E0007008B8003808A8003908A900AA01AB01A2
:1015F0002808AF07290803110318013E031DB0078F
:101600002A0803110318013E031DB1072B0803111B
:101610000318013E031DB2070830A8000310AF0DE8
:10162000B00DB10DB20DA80B0E2B2008F000240850
:101630000A128A1509200A128A157108B900700861
:10164000B8003808A8003908A900AA01AB01280889
:10165000AF07290803110318013E031DB0072A082C
:1016600003110318013E031DB1072B0803110318D2
:10167000013E031DB2072108F00026080A128A1550
:1016800009200A128A157108B9007008B8003808D4
:10169000A8003908A900AA01AB012808B407290845
:1016A00003110318013E031DB5072A08031103188F
:1016B000013E031DB6072B0803110318013E031D4D
:1016C000B7072208F00025080A128A1509200A1215
:1016D0008A157108B9007008B8003808A8003908E0
:1016E000A900AA01AB012808B407290803110318AF
:1016F000013E031DB5072A0803110318013E031D0F
:10170000B6072B0803110318013E031DB707220873
:10171000F00026080A128A1509200A128A15710893
:10172000B9007008B8003808A8003908A900AA0153
:10173000AB0108300310A80DA90DAA0DAB0DFF3E9B
:10174000031D9A2B2808B407290803110318013E2A
:10175000031DB5072A0803110318013E031DB60730
:101760002B0803110318013E031DB7073208A80018
:10177000A901AA01AB012808B4072908031103181D
:10178000013E031DB5072A0803110318013E031D7E
:10179000B6072B0803110318013E031DB7070830D5
:1017A000A8000310AF0DB00DB10DB20DA80BD12BD9
:1017B00033082E07A800A901A90D2808823EB80009
:1017C00029080318013EFF3EB900B61B022C013068
:1017D000A8000310B40DB50DB60DB70DA80BE92B7D
:1017E000B21B34140130A8000310AF0DB00DB10DC1
:1017F000B20DA80BF42BFF30B8070318B90AFF305D
:10180000B907E52BAE01B21F1B2CFF302F05A80036
:10181000FF303005A900FF303105AA007F303205C6
:10182000AB002B082A042904280403193418192CA6
:101830001B2CAE01AE0A2E0803194D2C0130B40743
:10184000003003180130B507003003180130B60727
:10185000003003180130B707371C4D2C3408A8009E
:101860003508A9003608AA003708AB000130AC00E3
:101870002B0DAB0CAA0CA90CA80CAC0B382C2B080C
:10188000B7002A08B6002908B5002808B4000130BE
:10189000B8070318B90A0030B9073908803AFF00C1
:1018A00080307F02031D562CFF303802031C632C4E
:1018B0007F3083120313B7008030B6000030B500CC
:1018C0000030B4008F2C831203133908803AFF00D4
:1018D00080307F02031D6E2C0130380203187C2CEF
:1018E000003083120313B7000030B6000030B5009B
:1018F0000030B400AD018F2C831203133808B300FD
:10190000FF30B405FF30B5057F30B6050030B705B0
:101910003318B6173308A8000310280CB7002D0899
:10192000FF007F08B7043708A3003608A200350877
:10193000A1003408A00008008312CC00CC1F512E57
:10194000CC09CC0A4C08803A123E031C932D0A3075
:10195000F6000030F7004C08F200F301F21BF3032D
:101960006430F0000030F1000A168A1517250A12BB
:101970008A157108F9007008F8000A168A15AE2554
:101980000A128A1576088312BE0001300310BE0DBC
:10199000FF3E031DC62C03103E0D243E463E840030
:1019A00098300318013EFF000A168A1500200A121B
:1019B0008A15BF000A168A1500200A128A15C0006F
:1019C0000A168A1500200A128A15C1000A168A15FD
:1019D00000200A128A15C2004208A3004108A20092
:1019E0004008A1003F08A0006430F6000030F70076
:1019F0004C08F800F901F81BF9030A168A15AE2500
:101A00000A128A1576088312C30001300310C30D31
:101A1000FF3E031D062D0310430D483E463E840045
:101A200098300318013EFF000A168A1500200A129A
:101A30008A15C4000A168A1500200A128A15C500E4
:101A40000A168A1500200A128A15C6000A168A1577
:101A500000200A128A15C7004708A7004608A600FA
:101A60004508A5004408A4000A128A15C3210A12D9
:101A70008A152308CB002208CA002108C9002008C3
:101A8000C8000A30F0000030F1004C08F200F30109
:101A9000F21BF3030A168A1517250A128A15700815
:101AA000BE0001300310BE0DFF3E031D522D03107A
:101AB0003E0D463E840098300318013EFF000A1692
:101AC0008A1500200A128A15BF000A168A150020FE
:101AD0000A128A15C0000A168A1500200A128A15F1
:101AE000C1000A168A1500200A128A15C20042088F
:101AF000A3004108A2004008A1003F08A0004B0835
:101B0000A7004A08A6004908A5004808A4000A1230
:101B10008A15C3212308BD002208BC002108BB0090
:101B20002008BA0008004C08803A753E031C222E9B
:101B30000A30F0000030F1004C08F200F301F21B13
:101B4000F3030A168A1517250A128A157008BE00B3
:101B500001300310BE0DFF3E031DA92D03103E0DE5
:101B6000463E840098300318013EFF000A168A158D
:101B700000200A128A15BF000A168A1500200A12D0
:101B80008A15C0000A168A1500200A128A15C1009B
:101B90000A168A1500200A128A15C2004208A300FC
:101BA0004108A2004008A1003F08A0000A30F6004A
:101BB0000030F7004C08F800F901F81BF9030A1689
:101BC0008A15AE250A128A1576088312C3000130E1
:101BD0000310C30DFF3E031DE82D0310430D243EEB
:101BE000463E840098300318013EFF000A168A150D
:101BF00000200A128A15C4000A168A1500200A124B
:101C00008A15C5000A168A1500200A128A15C60010
:101C10000A168A1500200A128A15C7004708A7006D
:101C20004608A6004508A5004408A4000A128A1523
:101C3000C3212308BD002208BC002108BB002008E6
:101C4000BA0008004C08BE0001300310BE0DFF3E74
:101C5000031D252E03103E0D463E840098300318C8
:101C6000013EFF000A168A1500200A128A15BF00DD
:101C70000A168A1500200A128A15C0000A168A154B
:101C800000200A128A15C1000A168A150020C20017
:101C90004208BD004108BC004008BB003F08BA0034
:101CA00008004C08803A123E031C422F0A30F6000E
:101CB0000030F7004C08F200F301F21BF30364302C
:101CC000F0000030F1000A168A1517250A128A154D
:101CD0007108F9007008F8000A168A15AE250A1274
:101CE0008A1576088312BE0001300310BE0DFF3E38
:101CF000031D752E03103E0D243E123E84009830C5
:101D00000318013EFF000A168A1500200A128A15E0
:101D1000BF000A168A1500200A128A15C0000A168A
:101D20008A1500200A128A15C1000A168A15002099
:101D30000A128A15C2004208A3004108A200400806
:101D4000A1003F08A0006430F6000030F7004C0806
:101D5000F800F901F81BF9030A168A15AE250A12D4
:101D60008A1576088312C30001300310C30DFF3EAD
:101D7000031DB52E0310430D483E123E84009830DB
:101D80000318013EFF000A168A1500200A128A1560
:101D9000C4000A168A1500200A128A15C5000A1600
:101DA0008A1500200A128A15C6000A168A15002014
:101DB0000A128A15C7004708A7004608A60045086A
:101DC000A5004408A4000A128A15C3210A128A1524
:101DD0002308CB002208CA002108C9002008C80037
:101DE0000A30F0000030F1004C08F200F301F21B61
:101DF000F3030A168A1517250A128A157008BE0001
:101E000001300310BE0DFF3E031D012F03103E0DD8
:101E1000123E840098300318013EFF000A168A150E
:101E200000200A128A15BF000A168A1500200A121D
:101E30008A15C0000A168A1500200A128A15C100E8
:101E40000A168A1500200A128A15C2004208A30049
:101E50004108A2004008A1003F08A0004B08A700CD
:101E60004A08A6004908A5004808A4000A128A15D5
:101E7000C3212308BD002208BC002108BB002008A4
:101E8000BA0008004C08803A753E031CD12F0A3076
:101E9000F0000030F1004C08F200F301F21BF303F4
:101EA0000A168A1517250A128A157008BE00013015
:101EB0000310BE0DFF3E031D582F03103E0D123EB2
:101EC000840098300318013EFF000A168A1500208E
:101ED0000A128A15BF000A168A1500200A128A15EE
:101EE000C0000A168A1500200A128A15C1000A16B7
:101EF0008A1500200A128A15C2004208A300410870
:101F0000A2004008A1003F08A0000A30F6000030FF
:101F1000F7004C08F800F901F81BF9030A168A15B6
:101F2000AE250A128A1576088312C3000130031009
:101F3000C30DFF3E031D972F0310430D243E123E99
:101F4000840098300318013EFF000A168A1500200D
:101F50000A128A15C4000A168A1500200A128A1568
:101F6000C5000A168A1500200A128A15C6000A162C
:101F70008A1500200A128A15C7004708A7004608DC
:101F8000A6004508A5004408A4000A128A15C3212A
:101F90002308BD002208BC002108BB002008BA00AD
:101FA00008004C08BE0001300310BE0DFF3E031DAB
:101FB000D42F03103E0D123E840098300318013ECA
:101FC000FF000A168A1500200A128A15BF000A1699
:101FD0008A1500200A128A15C0000A168A150020E8
:101FE0000A128A15C1000A168A150020C20042088A
:101FF000BD004108BC004008BB003F08BA00080013
:10200E00F700F901760803192628F801F80AF61BDD
:10201E0017280310F60D0130FF007F08F8070E2871
:10202E000310F90D76087702031C21287608F702B3
:10203E0079140310F60C0130F802031D17287908E5
:10204E0008000310720D730D8312A5002508031DE1
:10205E0039280030F3000030F2000030F10000307B
:10206E00F00008000310760D770DA4002408031964
:10207E003028F217FF30F005FF30F105FF30F20582
:10208E000030F305F617FF30F405FF30F505FF308D
:10209E00F6050030F7050030A3000030A200003036
:1020AE00A1000030A0007F30A502A0302407F80068
:1020BE007808A5022030A4000130F8000310A00D0E
:1020CE00A10DA20DA30DF80B652877087302031D51
:1020DE007A2876087202031D7A2875087102031D8C
:1020EE007A2874087002031C8B287408F002750895
:1020FE00031C750FF1027608031C760FF2027708A7
:10210E00031C770FF30220140130F8000310F00DBA
:10211E00F10DF20DF30DF80B8D280130A402031D05
:10212E006328A51FAF282508803A9F3E031C302840
:10213E0001300310A30CA20CA10CA00CFF3E031D3A
:10214E00A0280130FF007F08A5070319C2289F2889
:10215E00203025020318302825080319C228013023
:10216E00F8000310A00DA10DA20DA30DF80BB828B9
:10217E000130A502B3282308F3002208F20021083B
:10218E00F1002008F00008007008F8007108F9004E
:10219E007208FA000310790D7A0D83120313A5004D
:1021AE002508031DE3280030F3000030F200003054
:1021BE00F1000030F00008007408F8007508F9000E
:1021CE007608FA000310790D7A0DA400240803197D
:1021DE00DA28F117FF30F005FF30F1050030F20577
:1021EE00F517FF30F405FF30F5050030F605003029
:1021FE00A3000030A2000030A1000030A0007F300C
:10220E00A50298302407F8007808A5021830A4001B
:10221E000130F8000310A00DA10DA20DA30DF80BB7
:10222E00112976087202031D222975087102031DF9
:10223E00222974087002031C2F297408F0027508F5
:10224E00031C750FF1027608031C760AF2022014A5
:10225E0001300310F00DF10DF20DFF3E031D30297C
:10226E000130A402031D0F29A51F52292508803A0B
:10227E00973E031CDA2801300310A30CA20CA10C0C
:10228E00A00CFF3E031D43290130FF007F08A50768
:10229E00031965294229183025020318DA28250862
:1022AE00031965290130F8000310A00DA10DA20D30
:1022BE00A30DF80B5B290130A50256292308F30064
:1022CE002208F2002108F1002008F0000800831215
:1022DE00CB006E304B02031C5E2A3F30A300003051
:1022EE00A2000030A1000030A0006430F6004B08C0
:1022FE000A168A1107200A168A11BE000130031031
:10230E00BE0DFF3E031D862903103E0D8E3E84003A
:10231E0098300318013EFF000A168A1500200A168F
:10232E008A11BF000A168A1500200A168A11C000EB
:10233E000A168A1500200A168A11C1000A168A1575
:10234E0000200A168A11C2004208A7004108A60002
:10235E004008A5003F08A4000A128A15C3210A16D8
:10236E008A112308CA002208C9002108C8002008C3
:10237E00C7000A30F6006430F0004B080A168A15C2
:10238E00AA230A168A110A168A1107200A168A111A
:10239E00BE0001300310BE0DFF3E031DD1290310F8
:1023AE003E0D6A3E840098300318013EFF000A1667
:1023BE008A1500200A168A11BF000A168A150020F7
:1023CE000A168A11C0000A168A1500200A168A11EA
:1023DE00C1000A168A1500200A168A11C200420888
:1023EE00A3004108A2004008A1003F08A0004A082F
:1023FE00A7004908A6004808A5004708A4000A122D
:10240E008A15C3210A168A112308C6002208C500A0
:10241E002108C4002008C3000A30F0004B080A1639
:10242E008A15AA230A168A11BE0001300310BE0DAA
:10243E00FF3E031D1D2A03103E0D463E84009830BC
:10244E000318013EFF000A168A1500200A168A118B
:10245E00BF000A168A1500200A168A11C0000A1635
:10246E008A1500200A168A11C1000A168A15002044
:10247E000A168A11C2004208A3004108A2004008B1
:10248E00A1003F08A0004608A7004508A600440882
:10249E00A5004308A4000A128A15C3212308BD0013
:1024AE002208BC002108BB002008BA0008000B302F
:1024BE004B02031CF92A3F30A3000030A20000306B
:1024CE00A1000030A0000A30F6004B080A168A114F
:1024DE0007200A168A11BE0001300310BE0DFF3E02
:1024EE00031D742A03103E0D6A3E840098300318B3
:1024FE00013EFF000A168A1500200A168A11BF0037
:10250E000A168A1500200A168A11C0000A168A15A4
:10251E0000200A168A11C1000A168A1500200A1612
:10252E008A11C2004208A7004108A6004008A50073
:10253E003F08A4000A128A15C3210A168A1123081D
:10254E00CA002208C9002108C8002008C7000A30A6
:10255E00F0004B080A168A15AA230A168A11BE0025
:10256E0001300310BE0DFF3E031DB82A03103E0DB1
:10257E00463E840098300318013EFF000A168A1565
:10258E0000200A168A11BF000A168A1500200A16A4
:10259E008A11C0000A168A1500200A168A11C10077
:1025AE000A168A1500200A168A11C2004208A300D4
:1025BE004108A2004008A1003F08A0004A08A70059
:1025CE004908A6004808A5004708A4000A128A1563
:1025DE00C3212308BD002208BC002108BB0020082F
:1025EE00BA0008003F30A3000030A2000030A10066
:1025FE000030A0004B08BE0001300310BE0DFF3EA0
:10260E00031D042B03103E0D463E84009830031824
:10261E00013EFF000A168A1500200A168A11BF0015
:10262E000A168A1500200A168A11C0000A168A1583
:10263E0000200A168A11C1000A168A1500200A16F1
:10264E008A11C2004208A7004108A6004008A50052
:10265E003F08A4000A128A15C3212308BD002208D0
:10266E00BC002108BB002008BA0008004F088039C2
:10267E00DC004F08D4005407DE00CE1B5E145E084B
:10268E000319572B5E0A031D542B0030CF00003068
:10269E00CE000030CD000030CC00CE17CF015F2B26
:1026AE000030CF000030CE000030CD000030CC0026
:1026BE0053088039DD005D085C06031D5C17530866
:1026CE00D4005407DD00D21B5D145D0803197D2B69
:1026DE005D0A031D7A2B0030D3000030D20000308B
:1026EE00D1000030D000D217D301852B0030D3009B
:1026FE000030D2000030D1000030D0005E085D0204
:10270E000318AD2B5C1F8F2B8030FF007F08DC067B
:10271E005E08DF005D08DE005F08DD004C08DF00AC
:10272E005008CC005F08D0004D08DF005108CD00E6
:10273E005F08D1004E08DF005208CE005F08D200BD
:10274E004F08DF005308CF005F08D300DF015D089C
:10275E00D400D5015508D7005E085402D600031CDC
:10276E00D7035708803AFF0080307F02031DC12B2C
:10277E001A305602031CF42B831203134F084E0417
:10278E004D044C040319CD2B0130CE2B0030DF004D
:10279E000030CF000030CE000030CD000030CC0035
:1027AE005D08DE00FA2B5F1CE32B5F08D4000310DC
:1027BE00540C0138DF00E52B0310DF0C4C18DF172B
:1027CE000130D4004F0DCF0CCE0CCD0CCC0CD40B55
:1027DE00E92B0130FF007F08DE07831203135D082B
:1027EE005E02031CDA2B5C1B392C5E08031D082CC1
:1027FE000030CF000030CE000030CD000030CC00D5
:10280E0008005008CC07510803110318013E031DA0
:10281E00CD07520803110318013E031DCE075308BE
:10282E0003110318013E031DCF074F1CDB2C5F1C49
:10283E00272C5F08D4000310540C0138DF00292C1C
:10284E000310DF0C4C18DF170130D4004F0DCF0CE6
:10285E00CE0CCD0CCC0CD40B2D2C0130FF007F08F0
:10286E00DE07DB2C4F08803AFF005308803A7F02C8
:10287E00031D4B2C52084E02031D4B2C51084D02CA
:10288E00031D4B2C50084C020318A32CFF30D40010
:10289E00FF30D500FF30D600FF30D7005008D800EB
:1028AE005108D9005208DA005308DB004C08D80250
:1028BE004D08031C4D0F642C652CD9024E08031CC9
:1028CE004E0F6A2C6B2CDA024F08031C4F0F702C24
:1028DE00712CDB025808D40759080318590F782CAD
:1028EE00792CD5075A0803185A0F7E2C7F2CD60741
:1028FE005B0803185B0AD7075708CF005608CE00AF
:10290E005508CD005408CC008030FF007F08DC064F
:10291E00DF09DF0A5F08031DB12C0130CC07003040
:10292E0003180130CD07003003180130CE070030F8
:10293E0003180130CF07B12C5008CC025108031CEC
:10294E00510FCD025208031C520FCE025308031C26
:10295E00530FCF024F084E044D044C04031DD92CC7
:10296E005F08031DD92C0030CF000030CE000030A0
:10297E00CD000030CC0008000130D4000310CC0D87
:10298E00CD0DCE0DCF0DD40BC52CDF1B4C145F1C03
:10299E00D22C0314D32C0310DF0D5E080319D92C8F
:1029AE000130DE02CE1FC32CDD01DF1FE62C5F08D7
:1029BE007F3903194C18E42CE62CDD01DD0A5D0885
:1029CE000319192D0130CC07003003180130CD0743
:1029DE00003003180130CE07003003180130CF0746
:1029EE004F1C192D4C08D4004D08D5004E08D600AA
:1029FE004F08D7000130D800570DD70CD60CD50C88
:102A0E00D40CD80B032D5708CF005608CE0055080E
:102A1E00CD005408CC005E0A0319192D0130FF00B9
:102A2E007F08DE075E0A031D5E08031D292D003098
:102A3E00CF000030CE000030CD000030CC005E085C
:102A4E000319DC015E1C2D2DCE17312D7F30FF00BA
:102A5E007F08CE055E08D4000310540CCF00DC1F97
:102A6E000800CF170800831606108610061186116F
:102A7E0006128612051209148914871407150915F2
:102A8E000714871585140A128A1103200A168A1153
:102A9E00831607138717823083160313C100DD30A8
:102AAE00C000C00B582DC10B582D831203130512F5
:102ABE000A168A1538230A168A11F401F40A01300F
:102ACE000A168A1591240A168A11C030F50098301C
:102ADE00F6000A168A1517240A168A11F401F40A4A
:102AEE0002300A168A1591240A168A11FA30F50058
:102AFE009830F6000A168A1517240A168A11113014
:102B0E00F40002300A168A1591240A168A113430FE
:102B1E00F5009930F6000A168A1517240A168A113E
:102B2E00063083160313C2001330C100AD30C0004F
:102B3E00C00B9F2DC10B9F2DC20B9F2D0A168A1500
:102B4E0038230A168A11803083169F001930990097
:102B5E000A168A1543230A168A1183160317CA0109
:102B6E00CB018130831203139F001F151F19BD2D3A
:102B7E001E088316C000C10140080317BC000313D2
:102B8E0041080317BD008D30831203139F001F15DC
:102B9E001F19CF2D1E088316C000C1014008031750
:102BAE00BE00031341080317BF0043308312031303
:102BBE00A3007F30A2000030A1000030A0008316D9
:102BCE0003173E08F0003F08F100F201F301003058
:102BDE000A168A155F270A168A11730883120313C1
:102BEE00A7007208A6007108A5007008A4000A12BA
:102BFE008A152C200A168A11230883160317BB0088
:102C0E0083120313220883160317BA0083120313C9
:102C1E00210883160317B9008312031320088316A5
:102C2E000317B800F401F40A02300A168A1591242B
:102C3E000A168A110930F5009930F6000A168A151F
:102C4E0017240A168A113030E8009930E9008316ED
:102C5E0003173D0883120313EB00831603173C087A
:102C6E0083120313EA00C2300A128A115E200A167A
:102C7E008A110730F40002300A168A1591240A16BA
:102C8E008A11C230F5000130F6000A168A15172493
:102C9E000A168A110D30F40002300A168A15912494
:102CAE000A168A11F230F5009830F6000A168A15C7
:102CBE0017240A168A111630E8009930E900831697
:102CCE0003173B0883120313ED00831603173A080C
:102CDE0083120313EC0083160317390883120313B0
:102CEE00EB0083160317380883120313EA00C6306D
:102CFE000A128A115E200A168A111430F40002306C
:102D0E000A168A1591240A168A11C630F50001306A
:102D1E00F6000A168A1517240A168A11033083162E
:102D2E000313C2008A30C1005530C000C00B9D2E67
:102D3E00C10B9D2EC20B9D2E831203138718891C67
:102D4E00C32E0A30F40001300A168A1591240A1691
:102D5E008A11CD30F5009830F6000A168A15172420
:102D6E000A168A111C30F1009930F2000A168A15E3
:102D7E0054240A168A11CB2F071CC72E8918CA2E67
:102D8E0007180918E52E0C30F40001300A168A15C2
:102D9E0091240A168A11E130F5009830F6000A16D1
:102DAE008A1517240A168A11EA30F1009830F200BB
:102DBE000A168A1554240A168A11CB2F891C2D2F18
:102DCE001030F40002300A168A1591240A168A1160
:102DDE002130F5009930F6000A168A1517240A16C6
:102DEE008A11831603174A090313C00003174B09F0
:102DFE000313C100C00A0319C10A40080317C0001B
:102E0E00031341080317C100103083120313E800A7
:102E1E009930E90083160317410883120313EB0060
:102E2E0083160317400883120313EA0090300A1228
:102E3E008A115E200A168A119030F1000130F200DC
:102E4E000A168A1554240A168A11CB2F0719091C43
:102E5E004B2F0A30F40001300A168A1591240A16F7
:102E6E008A11D730F5009830F6000A168A15172405
:102E7E000A168A111C30F1009930F2000A168A15D2
:102E8E0054240A168A11CB2F091D4F2F0918522FC1
:102E9E00091989186D2F0C30F40001300A168A15A5
:102EAE0091240A168A11E130F5009830F6000A16C0
:102EBE008A1517240A168A110230F1009930F20091
:102ECE000A168A1554240A168A11CB2F091CA02F14
:102EDE001030F40002300A168A1591240A168A114F
:102EEE002630F5009930F6000A168A1517240A16B0
:102EFE008A111030E8009930E900831603174B0849
:102F0E0083120313EB00831603174A08831203136D
:102F1E00EA00A4300A128A115E200A168A11A43021
:102F2E00F1000130F2000A168A1554240A168A118D
:102F3E00CB2F1030F40002300A168A1591240A168F
:102F4E008A112B30F5009930F6000A168A151724CF
:102F5E000A168A111C30F1009930F2000A168A15F1
:102F6E0054240A168A110A30F40001300A168A1502
:102F7E0091240A168A11A230F5009830F6000A162E
:102F8E008A1517240A168A11071D8718E42F091DA2
:102F9E000718E42F8719E42F0830F40001300A16C1
:102FAE008A1591240A168A11A230F5009830F6007F
:102FBE000A168A1517240A168A118718E82F071D74
:102FCE00EA2F0516EB2F0512871DB82D05160730B3
:102FDE00F40001300A168A1591240A168A11B130AE
:102FEE00F5009830F6000A168A1517240A168A116B
:102FFE00B82DFF1B0A2883137F1883170008840A35
:10300E000319FF0A08007F087F398A000408840A22
:10301E000319FF0A82000034003480343F34003438
:10302E0000342034413400340034C8344234003487
:10303E0000347A344434003440341C344634003482
:10304E005034C33447340034243474344934803417
:10305E00963418344B342034BC34BE344C342834BB
:10306E006B346E344E34F934023415345034EC343F
:10307E007834AD346034CA34F234493471340034A7
:10308E00003480343F34CD34CC34CC343D340A3427
:10309E00D73423343C346F34123483343A341734F7
:1030AE00B734D1343834AC34C53427343734BD3426
:1030BE003734863435349534BF34D634333477349C
:1030CE00CC342B3432345F34703489343034FF34A2
:1030DE00E634DB342E340834E5343C341E346034AC
:1030EE004234A2340D3401340034003400340A3436
:1030FE000034003400346434003400340034E834D6
:10310E000334003400341034273400340034A03437
:10311E00863401340034403442340F340034803469
:10312E009634983400340034E134F53405340034E8
:10313E00CA349A343B3420342034203420342034A2
:10314E0020342034203420342034203420342034D1
:10315E002034003444344334203453344534523410
:10316E0056344F3420344534523452344F34523462
:10317E000034483469344B342D3455345A344D347C
:10318E0041344E344C344134523400344634573486
:10319E00443420344C3449344D344934543400349E
:1031AE0052344534573420344C3449344D34493438
:1031BE0054340034463445344134443420343434A9
:1031CE0030343034003473342D34323435343534B5
:1031DE000D340A34003466346C346F346134743414
:1031EE003A3420340034503472346F346A346534D7
:1031FE0063347434003473343234353435340D342E
:10320E000A34003472346134743465343A34203400
:10321E0000347334253464340D340A3400342534C8
:10322E0033342E34313466340034733430340D3448
:10323E000A34003446345734443420340034523483
:10324E004534573420340034533454344F345034CE
:10325E00003425343334753400345634323400346B
:10366000F0008316981C312B700883129900080013
:1036700000300A168A1574230A168A1501300A16B4
:103680008A15742308002430980090308312980023
:10369000193083169900831299010800F100F00196
:1036A0003A30710203185A2B30307102031C5A2B26
:1036B000F001F00A700C0800F000701C622B8312FD
:1036C0008615642B83128611F01C682B0615692B56
:1036D0000611701D6D2B86146E2B8610F01D722B3B
:1036E0000614080006100800F30083120313861264
:1036F00073080A168A155C230A168A150616063000
:10370000F2003030F100F10B832BF20B832B000021
:1037100083120313061208008030E3066708CF0007
:103720006608CE006508CD006408CC006308D300AD
:103730006208D2006108D1006008D0000A168A1120
:103740003D234F08E3004E08E2004D08E1004C081D
:10375000E0000800F3000830F400F5017308F10000
:1037600007300310F10CFF3E031DB12B7508F2006A
:1037700072077104F5000310F30D70087502031C45
:10378000C32B7008F5020130F402031DAE2B75083F
:103790000800F401F501701CD32B7208F40703181C
:1037A000F50A7308F50701300310F20DF30DFF3E23
:1037B000031DD42B01300310F10CF00CFF3E031D50
:1037C000DB2B70087104031DCB2B7508F100740806
:1037D000F0000800F40074080F39F2007408F039A2
:1037E000F30086167308F10004300310F10CFF3E5D
:1037F000031DF52B71080A168A155C230A168A1513
:1038000006160D30F100F10B032C83120313061280
:1038100072080A168A155C230A168A1506160D30D8
:10382000F100F10B112C8312031306120800FA01A8
:10383000FB017A087507F8007608F7000318F70A05
:10384000FA1BF7037708F900790883120313FF00C6
:10385000780884000A168A1500200A168A15003A8C
:10386000031908007A087507F8007608F7000318AE
:10387000F70AFA1BF7037708F90079088312031394
:10388000FF00780884000A168A1500200A168A1597
:103890000A168A15EA230A168A150130FA07031850
:1038A000FB0A0030FB07192CF601F70176087107B7
:1038B000F4007208F3000318F30AF61BF30373080D
:1038C000F500750883120313FF00740884000A16BC
:1038D0008A1500200A168A15003A0319080076088E
:1038E0007107F4007208F3000318F30AF61BF303E0
:1038F0007308F500750883120313FF007408840031
:103900000A168A1500200A168A150A168A15302307
:103910000A168A150130F6070318F70A0030F70770
:10392000562CF6007603031DB02C74087F3EF90078
:103930007908F50004300310F50CFF3E031D9B2CA5
:103940007508F70079080F39F80077080A168A1504
:1039500074230A168A1578080A168A157423080033
:1039600002307606031D08007408BF3EF90079088E
:10397000F50004300310F50CFF3E031DBA2C75084A
:10398000F70079080F39F80077080A168A157423AA
:103990000A168A1578080A168A157423080000305A
:1039A0007005F80000307105F90080307205FA00EA
:1039B0007F307305FB007B087A0479047804031DCB
:1039C000E92C0030F3000030F2000030F10000304C
:1039D000F00000307405F80000307505F900803003
:1039E0007605FA007F307705FB007B087A047904BE
:1039F0007804031D032D0030F7000030F60000307E
:103A0000F5000030F40077087306031D112D7608C9
:103A10007206031D112D75087106031D112D740802
:103A200070060319152D0310080003140800F50192
:103A3000F31F212DF209F309F20A0319F30AF50124
:103A4000F50AF11F282DF009F109F00A0319F10A0E
:103A5000700871040319552DF401F40AF11B3C2D73
:103A600001300310F00DF10DFF3E031D312D01302B
:103A7000FF007F08F4072E2D71087302031D422DED
:103A800070087202031C4A2D7008F2027108031CB0
:103A9000F303F30201300310F10CF00CFF3E031DA1
:103AA0004B2D0130F402031D3C2D750803195D2DCB
:103AB000F209F309F20A0319F30A7308F100720814
:103AC000F000080023082204210420040319A52D76
:103AD000A901A90AA31B7A2D0130A8000310A00D8B
:103AE000A10DA20DA30DA80B6E2D0130FF007F08C4
:103AF000A9076A2D23082702031D882D2208260204
:103B0000031D882D21082502031D882D200824026D
:103B1000031C982D2008A4022108031C210FA502D4
:103B20002208031C220FA6022308031C230FA7024E
:103B300001300310A30CA20CA10CA00CFF3E031D2E
:103B4000992D0130A902031D7A2D2708A30026080C
:103B5000A2002508A1002408A0000800FB01F71F0F
:103B6000B82DF609F709F60A0319F70AFB01FB0A53
:103B7000F91FC32DF809F909F80A0319F90A0130E8
:103B8000FF007F08FB06FC01FD017608770403199E
:103B9000FA2DFA01FA0AF71BD92D01300310F60DA0
:103BA000F70DFF3E031DCE2D0130FF007F08FA0701
:103BB000CB2D01300310FC0DFD0DFF3E031DDA2D52
:103BC00077087902031DE62D76087802031CEF2D95
:103BD0007608F8027708031CF903F9027C14013017
:103BE0000310F70CF60CFF3E031DF02D0130FA0216
:103BF000031DD92D7B080319022EFC09FD09FC0ABF
:103C00000319FD0A7D08F7007C08F6000800003063
:103C1000FC000030FB000030FA000030F9007308AF
:103C200072047104700403195C2EFD01FD0AF31B7C
:103C3000272E0130F8000310F00DF10DF20DF30DF9
:103C4000F80B1B2E0130FF007F08FD07172E0130F7
:103C5000F8000310F90DFA0DFB0DFC0DF80B292EE1
:103C600073087702031D3E2E72087602031D3E2E56
:103C700071087502031D3E2E70087402031C4F2E3E
:103C80007008F4027108031C710FF5027208031C1E
:103C9000720FF6027308031C730FF70279140130D8
:103CA0000310F30CF20CF10CF00CFF3E031D502E30
:103CB0000130FD02031D272E7C08F3007B08F20073
:103CC0007A08F1007908F000080003104F0D500D3C
:103CD000D6005608031D752E0030D0000030CF00EE
:103CE0000030CE000030CD0008004D08D1004E0855
:103CF000D2004F08D3005008D4001F300310D40C5A
:103D0000D30CD20CD10CFF3E031D7E2E5108D500E2
:103D1000CF17FF30CD05FF30CE05FF30CF05003087
:103D2000D0059630D602D61FAA2E5608803A973E66
:103D3000031C6C2E01300310D00CCF0CCE0CCD0C1C
:103D4000FF3E031D9B2E0130FF007F08D60703199D
:103D5000BD2E9A2E2030560203186C2E56080319D9
:103D6000BD2E0130D1000310CD0DCE0DCF0DD00DE5
:103D7000D10BB32E0130D602AE2E55080319080020
:103D8000CD09CE09CF09D009CD0A0319CE0A0319EE
:103D9000CF0A0319D00A080000307005F80000307F
:103DA0007105F90080307205FA007F307305FB0061
:103DB0007B087A0479047804031DE62E0030F300B2
:103DC0000030F2000030F1000030F00000307405E7
:103DD000F80000307505F90080307605FA007F3074
:103DE0007705FB007B087A0479047804031D002F13
:103DF0000030F7000030F6000030F5000030F4002D
:103E0000F31F262F0030F8000030F9000030FA00D0
:103E10008030FB007008F8027108031C710F112F2D
:103E2000122FF9027208031C720F172F182FFA02B3
:103E30007308031C730F1D2F1E2FFB027B08F3005A
:103E40007A08F2007908F1007808F000F71F4C2F8B
:103E50000030F8000030F9000030FA008030FB003C
:103E60007408F8027508031C750F372F382FF902F4
:103E70007608031C760F3D2F3E2FFA027708031CAD
:103E8000770F432F442FFB027B08F7007A08F600D8
:103E90007908F5007808F4008030F3068030F706E2
:103EA00077087302031D080076087202031D0800DC
:103EB00075087102031D0800740870020800F800FC
:103EC0007808031DF31F742F7009FA007109FB00B5
:103ED0007209FC007309FD00FA0A0319FB0A0319B1
:103EE000FC0A0319FD0A7C2F7308FD007208FC0010
:103EF0007108FB007008FA00730872047104700402
:103F0000031D8B2F0030F3000030F2000030F10071
:103F10000030F00008009630F900FE307D050319EE
:103F2000BA2F0130FF007F08F90701300310FD0CA4
:103F3000FC0CFB0CFA0CFF3E031D962F8D2F01305D
:103F4000FF007F08F9070130FA070030031801303D
:103F5000FB07003003180130FC0700300318013064
:103F6000FD0701300310FD0CFC0CFB0CFA0CFF3EAE
:103F7000031DB22FFF307D050319CE2F9F2F023076
:103F80007902031CD02F0130F9020130F400031034
:103F9000FA0DFB0DFC0DFD0DF40BC72FFC1FBF2F01
:103FA0007918DA2FFF30FA05FF30FB057F30FC056A
:103FB000FF30FD050310F90C7908F400F501F60156
:103FC000F70118300310F40DF50DF60DF70DFF3E57
:103FD000031DE22F7408FA047508FB047608FC043C
:103FE0007708FD047808031DF31FF72FFD177D08E0
:103FF000F3007C08F2007B08F1007A08F00008006A
:02400E00713F00
:00000001FF
